:020000040800F2
:1000000080180020D5300008852F0008872F0008B1
:10001000892F00088B2F00088D2F0008000000009A
:10002000000000000000000000000000632B00083A
:100030008F2F0008000000001D2B0008851300080A
:100040003D310008413100084531000849310008C0
:100050004D31000851310008553100085931000870
:100060005D31000861310008653100086931000820
:100070006D310008713100087531000879310008D0
:100080007D31000881310008853100088931000880
:10009000912F00088D31000891310008953100083A
:1000A000993100089D310008A1310008A5310008F0
:1000B000A93100089B2F0008A52F0008AD310008CA
:1000C000B1310008B5310008B9310008BD31000870
:1000D000C1310008C5310008C9310008CD31000820
:1000E000D1310008D5310008D931000838B50400F5
:1000F000002C01D10120AEE094F82000002802D1AC
:10010000200000F0DEFB2068006830F0020021686B
:10011000086000F075FC05002068406880070DD578
:1001200000F06EFC401B0B28F6D3606A50F40030E0
:100130006062052084F8200001208CE020680068BF
:1001400050F001002168086000F05AFC05002068AA
:100150004068C0070DD400F053FC401B0B28F6D3B9
:10016000606A50F400306062052084F820000120AD
:1001700071E0207E012806D12068006850F08000E0
:100180002168086005E02068006830F08000216880
:100190000860607E012806D12068006850F04000A9
:1001A0002168086005E02068006830F040002168A0
:1001B0000860A07E012806D12068006850F0200069
:1001C0002168086005E02068006830F020002168A0
:1001D0000860E07E012806D12068006830F0100039
:1001E0002168086005E02068006850F01000216870
:1001F0000860207F012806D12068006850F00800C0
:100200002168086005E02068006830F00800216877
:100210000860607F012806D12068006850F0040063
:100220002168086005E02068006830F0040021685B
:100230000860A168E06801432069014360690143E7
:100240006068401E01432068C16100206062012097
:1002500084F82000002032BD30B4026890F82030CD
:100260001C00E4B2012C02D0DBB2022B74D1D2F814
:10027000000250F00100C2F8000201200B7D13F0D3
:100280001F0310FA03F3D2F81C029843C2F81C02B1
:10029000C869002818D1D2F80C029843C2F80C02A1
:1002A000486902EBC000CC684D68ADB255EA044520
:1002B000C0F84052486902EBC0008C680D68ADB2CE
:1002C00055EA0445C0F84452C869012818D1D2F84B
:1002D0000C021843C2F80C02486902EBC0000C681B
:1002E0004D68ADB255EA0445C0F84052486902EB8A
:1002F000C0008C68CD68ADB255EA0445C0F84452E0
:100300008869002805D1D2F804029843C2F8040293
:1003100004E0D2F804021843C2F804020869002875
:1003200005D1D2F814029843C2F8140204E0D2F8BE
:1003300014021843C2F81402086A012804D1D2F842
:100340001C020343C2F81C32D2F8000240084000ED
:10035000C2F80002002004E0416A51F480214162A9
:10036000012030BC704738B5040094F82000012803
:1003700021D1022084F82000206800684008400055
:100380002168086000F03CFB050020684068C00759
:100390000DD500F035FB401B0B28F6D3606A50F4F6
:1003A00000306062052084F82000012008E0002071
:1003B0006062002004E0606A50F400206062012066
:1003C00032BD70B490F820500468A6688C68002C88
:1003D000FFD02C00E4B2012C02D0EDB2022D6ED180
:1003E00016F0E05F65D0C6F30164032C05D3416AC3
:1003F00051F400014162012066E00125A5401D6025
:100400008B68002B09D10B68CD6855EA435503680A
:1004100026013344C3F880510AE04B688D6855EAE1
:10042000C305CB681D43036826013344C3F88051DC
:100430000B69056826013544C5F88431097D012919
:100440000BD1016823011944D1F8841151F4807152
:10045000036825012B44C3F88411D17993791B04D7
:1004600053EA0163517953EA012311790B4301687F
:1004700025012944C1F88C31D17893781B0453EAC3
:100480000163517853EA012311780B43016822017B
:100490001144C1F88831016822011144D1F880115A
:1004A00051F00101006822011044C0F880110020C1
:1004B0000AE0416A51F400114162012004E0416AFE
:1004C00051F480214162012070BC704730B490F833
:1004D00020402500EDB2012D03D0E4B2022C40F003
:1004E000988000290AD10468E46814F0030F10D141
:1004F000416A51F40011416201208FE004682469CF
:1005000014F0030F05D1416A51F40011416201203A
:1005100084E004680D012C44D4F8B04114F00404C4
:1005200094609468002C07D104680D012C44D4F821
:10053000B041640D146006E004680D012C44D4F849
:10054000B041E408546004680D012C44D4F8B04173
:1005500014F00204D46004680D012C44D4F8B441B2
:1005600014F00F04146104680D012C44D4F8B44154
:10057000C4F30724946104680D012C44D4F8B441F9
:10058000240C546102680C012244D2F8B8211A707C
:1005900002680C012244D2F8B821120A5A7002688B
:1005A0000C012244D2F8B821120C9A7002680C0196
:1005B0002244D2F8B821120EDA7002680C012244EB
:1005C000D2F8BC211A7102680C012244D2F8BC2175
:1005D000120A5A7102680C012244D2F8BC21120C92
:1005E0009A7102680C012244D2F8BC21120EDA7111
:1005F000002906D10168C96851F020010068C16076
:1006000005E00168096951F02001006801610020DE
:1006100004E0416A51F480214162012030BC7047FE
:1006200090F820201300DBB2012B02D0D2B2022AB4
:1006300006D102685269114300684161002004E05C
:10064000416A51F480214162012070472DE9F84F41
:100650000500002428684669286847682868D0F89B
:1006600008802868D0F80C902868D0F810A0286876
:10067000D0F818B0F00755D55FEAC87018D501203A
:10068000296888605FEA887003D5280000F0BEF909
:100690000EE05FEA487002D554F4006408E05FEAB7
:1006A000087002D554F4805402E0280000F0AFF93D
:1006B0005FEAC85019D54FF48070296888605FEAF6
:1006C000885003D5280000F0A3F90EE05FEA4850F7
:1006D00002D554F4005408E05FEA085002D554F4FF
:1006E000804402E0280000F094F95FEAC83019D590
:1006F0005FF48030296888605FEA883003D528007D
:1007000000F088F90EE05FEA483002D554F4004466
:1007100008E05FEA083002D554F4803402E0280093
:1007200000F079F9300707D55FEAC96004D554F4C1
:10073000007410202968C860700708D55FEA097046
:1007400005D508202968C860280000F065F9B007C1
:1007500007D52868C06810F0030F02D0280000F009
:1007600080F9700607D55FEACA6004D554F4806446
:10077000102029680861B00608D55FEA0A7005D51F
:10078000082029680861280000F0EAF9F00607D57A
:100790002868006910F0030F02D0280000F0E1F98A
:1007A000B00307D5F80605D5102029684860280051
:1007B00000F0D8F9F00307D5380705D508202968D7
:1007C0004860280000F0CFF930044DD5780748D5AF
:1007D000F00506D51BF00100C0B2002801D054F08E
:1007E0000104B00504D55FEA8B7001D554F0020412
:1007F000700504D55FEA4B7001D554F00404300550
:100800002FD51BF0700F2CD01BF0700BBBF1100F0D
:100810000FD0BBF1200F0FD0BBF1300F0FD0BBF1C9
:10082000400F0FD0BBF1500F0FD0BBF1600F0FD0B6
:1008300011E054F008040EE054F010040BE054F002
:10084000200408E054F0400405E054F0800402E085
:1008500054F48074FFE72868806930F070002968DC
:100860008861042029684860002C05D0686A044328
:100870006C62280000F078F9BDE8F18F80B5594826
:10088000016851F001010160006810F00100009062
:1008900000985548016851F080510160006810F0DF
:1008A00080500090009800220F217FF0010000F09E
:1008B000B1F94E49086830F0E06050F0007008600F
:1008C00001BD18B585B004006846102100F0C2F9DA
:1008D0002068474988423BD14348016851F0007184
:1008E0000160006810F00070049004983D480168B1
:1008F00051F008010160006810F0080004900498AD
:100900004FF4807000900020019000200290394C3C
:100910006946200000F0A2F94FF400700090022018
:100920000190032003906946200000F097F92F49B9
:10093000086830F4C04050F0E06050F48040086037
:1009400000220521142000F065F9142000F073F94D
:1009500006B010BD80B50168B1F1804F0AD12248C0
:10096000016851F001010160006810F00100009081
:10097000009815E000682049884211D11A480168A2
:1009800051F002010160006810F002000090009830
:10099000002205211D2000F03DF91D2000F04BF93B
:1009A00001BD18B585B0040001A8102100F052F96E
:1009B0002068B0F1804F13D10A48016851F004015A
:1009C0000160006810F00400009000980120019080
:1009D000022002900220049001A9084800F03EF98C
:1009E00006B010BD181002401C1002400400014067
:1009F00000640040000C0140000400400008014079
:100A000001480068704700BF3C14002070477047E1
:100A10007047704770477047704730B4002513E047
:100A200050F8042BD30744BFA9F101039A18091FFA
:100A3000042942F8045BFAD213468C0744BF1580A0
:100A40009B1CC90748BF1D7050F8041B0029E7D143
:100A500030BC7047384B0360384808608020106015
:100A6000704700B589B06B4602AA0021FFF72EFD42
:100A7000002801D000F093FB9DF8000037280AD130
:100A80009DF801002E49487201202E49087000206F
:100A90002D490968486209B000BD80B588B0684634
:100AA00000210160042006900020029000200590A3
:100AB0000020049000208DF81C0037208DF80000E5
:100AC000224800788DF80100214800788DF8020056
:100AD0001B48407A8DF8030000F024FC01AB6A4605
:100AE00002A91C48FFF76DFC002801D000F057FB5D
:100AF00000F032FC4FF40051174800F091F96420E7
:100B000000F097FDD9E710B50D4C14486060002047
:100B100020600C480078002803D1200001F024F860
:100B200002E0200001F027F8200001F02BF80A2055
:100B300000F07FFDEDE700006C120020E00F0020C8
:100B40000C1400207E140020001300207C140020D0
:100B50007D1400208013002000100140C0120020EE
:100B600070477047704770477047010210F00700E8
:100B7000334B1A684FF6FF010A40324951EA00210F
:100B80000A431A6070472E480068C0F3022070477D
:100B9000010049B2002908D4012210F01F018A4047
:100BA000294940B2400941F820207047020052B262
:100BB000002A04D40901254A40B2115407E0090172
:100BC000234A40B210F00F00104400F8041C704794
:100BD00010B410F00700D0F10703052B01D3042354
:100BE00001E0D0F10703041D072C01D2002000E032
:100BF000C01E012414FA03F35B1E1940814014FA4D
:100C000000F0401E1040084310BC704780B5FFF74D
:100C1000ADFF01BD70B504000D0016000020FFF708
:100C2000B2FF32002900FFF7D3FF0100200040B2DD
:100C3000FFF7BCFF70BD80B540B2FFF7A9FF01BD53
:100C40000CED00E00000FA0500E100E000E400E047
:100C500018ED00E0002200F0CBBF0000F8B5020064
:100C60000023002514E0DFF8D001066836EA04040A
:100C700004600CE0DFF8C4010668A643066048681B
:100C80008002F0D5DFF8B0010668344304605B1CD5
:100C90000868D840002800F0B88001269E400C6803
:100CA0003440B442F3D14868002827D001281AD034
:100CB00002281DD003282FD0112816D012281AD0B0
:100CC0005F4FB8421AD05F4FB84217D05E4FB8425C
:100CD00014D05E4FB84211D05D4FB8420ED05D4F78
:100CE000B8420BD01AE0CD6818E0CD682D1D15E094
:100CF000CD68083512E0CD680C350FE08868002813
:100D000001D1042507E08868012802D10825166171
:100D100001E00825566101E00025FFE7B4F5807F7A
:100D200001D2170000E0171DB4F5807F02D25FEA00
:100D3000830C03E0B3F1080C5FEA8C0C0F26D7F8A4
:100D400000E016FA0CF03EEA000E15FA0CFC5CEA24
:100D50000E0CC7F800C04868C00098D53E48076828
:100D600057F001070760006810F00100009000983C
:100D70003A4F1800800857F820C013F00300C0B2A3
:100D8000800086403CEA060C3548824201D10026AC
:100D90000FE03448824201D101260AE03248824203
:100DA00001D1022605E03148824201D1032600E04C
:100DB000042613F00300C0B28000864056EA0C0CF3
:100DC0001800800847F820C04868C00304D52848A8
:100DD00006682643066003E025480668A6430660C9
:100DE0004868800304D5234806682643066003E06C
:100DF00020480668A64306604868C0027FF53AAFFF
:100E00000E4806682643066039E7F1BDD2B2002AD3
:100E100002D089B2016102E089B209040161704720
:100E2000C2680B009BB21A4202D089B2416101E054
:100E300089B20161704700000C04014008040140C0
:100E400000001110000012100000211000002210FC
:100E5000000031100000321018100240080001405C
:100E600000080140000C0140001001400014014046
:100E7000000401400404014080B58EB000F0D2FEB1
:100E800000F021F800F03AF900F052F800F09CF878
:100E900000F0F3F807A8DE491C2200F0D5FE00217F
:100EA00007A800F025FFDB4908606846DA491C22E4
:100EB00000F0CAFE0021684600F01AFFD74908601A
:100EC00000F011FFFEE700B58FB005A82821FFF75D
:100ED000C1FE68461421FFF7BDFE012005905FF4B6
:100EE00080300690002107910121099102210C9187
:100EF0000D905FF4E0100E9005A800F029FF002887
:100F000001D000F04CF90F20009002200190002049
:100F100002904FF480600390002004900221684604
:100F200001F0FFF8002801D000F039F90FB000BD42
:100F300010B58AB0BA4CBB48206009206060002020
:100F4000A0605FF08070E0605FF4402020615FF49B
:100F50008010606100202076002060760020A0765E
:100F60000120E07600202077002060772000FFF746
:100F7000BDF8002801D000F012F9002005900020F3
:100F8000069001200790002002900020039000208E
:100F900004900120089069462000FFF75DF90028C1
:100FA00001D000F0FCF802212000FFF739FB0028F7
:100FB00001D000F0F4F82000FFF7D5F9002801D0A7
:100FC00000F0EDF80AB010BD18B58DB009A81021D9
:100FD000FFF740FE9448D0E90023CDE9002302A8A2
:100FE0001C21FFF737FE914C5FF0804020604720C6
:100FF00060600020A06044F61F60E0600020206177
:101000000020A061200001F0BFF9002801D000F00D
:10101000C6F84FF48050099009A9200001F08FFB19
:10102000002801D000F0BBF8200001F0DDF9002815
:1010300001D000F0B4F80020009000200190694633
:10104000200001F025FD002801D000F0A8F8602064
:1010500002900020039000200490002006900022BF
:1010600002A9200001F0EDFA002801D000F097F865
:101070002000FFF796FC0EB010BD10B586B002A898
:101080001021FFF7E7FD6A48D0E90023CDE90023EE
:10109000684C6948206041F61F4060600020A060F5
:1010A0004CF25030E060002020618020A0612000E0
:1010B00001F06AF9002801D000F071F84FF4805077
:1010C000029002A9200001F03AFB002801D000F0B4
:1010D00066F800200090002001906946200001F091
:1010E000D7FC002801D000F05AF8200001F068F980
:1010F000002801D000F053F806B010BD18B585B037
:1011000001A81021FFF7A6FD4C48016851F010011D
:101110000160016811F0100100910099016851F01F
:1011200020010160016811F020010091009901681F
:1011300051F004010160016811F00401009100996F
:10114000016851F008010160006810F0080000908B
:1011500000983B4C00224FF400512000FFF756FE50
:101160004FF40050019001200290002003900220D3
:10117000049001A92000FFF771FD06B010BD10B565
:10118000040020682F49884201D101F0A7FC2068A3
:101190002949884202D100202B49087010BD10B5A2
:1011A000274C4FF400512000FFF73AFE4FF49670A1
:1011B00001F0A0FC4FF400512000FFF731FE4FF486
:1011C000967001F097FC4FF400512000FFF728FEC5
:1011D0004FF4967001F08EFC4FF400512000FFF7A1
:1011E0001FFE4FF4967001F085FC4FF40051200073
:1011F000FFF716FE4FF4967001F07CFC4FF400519F
:101200002000FFF70DFE4FF4967001F073FC10BD47
:101210007C3000083014002098300008341400207E
:10122000801300200064004018310008C012002024
:101230002031000800130020000400401810024074
:1012400000100140000800407E140020001F5FF0E5
:1012500080730360001F490849000160001F0FF2FE
:101260000D01016014380260203870474F48006853
:1012700010F1010F07D0502080F31188BFF34F8F7A
:10128000BFF36F8FFEE7502080F31188BFF34F8FBD
:10129000BFF36F8FFEE7E0B5454801780191FF216C
:1012A000017001788DF800109DF8001011F05001C8
:1012B000404A1170404907220A6007E00A68521E3E
:1012C0000A609DF8002052008DF800209DF8002053
:1012D0001206F3D40A68D2F10702042A07D050207C
:1012E00080F31188BFF34F8FBFF36F8FFEE70A685B
:1012F00012020A600A6812F4E0620A600199017041
:101300002E48016851F470010160016851F070418C
:10131000016000F057F800202449086001F031FC1A
:1013200000200EBD502080F31188BFF34F8FBFF314
:101330006F8F1E490A68521C0A60096801290AD188
:101340001F490968090606D080F31188BFF34F8F43
:10135000BFF36F8FFEE7704714490868002807D174
:10136000502080F31188BFF34F8FBFF36F8FFEE7DC
:101370000868401E08600868002802D1002080F339
:101380001188704780B5502080F31188BFF34F8FCC
:10139000BFF36F8F00F032FA002803D05FF0805067
:1013A00007490860002080F3118801BD000000207B
:1013B00000E400E07F1400203814002020ED00E05D
:1013C00004ED00E00848002101600021074A116097
:1013D000074909684FF47A72B1FBF2F1491E054AD8
:1013E000116007210160704710E000E018E000E0A4
:1013F0000800002014E000E078B585B005000B98E7
:10140000002807D1502080F31188BFF34F8FBFF31E
:101410006F8FFEE70C9C002C07D1502080F31188C1
:10142000BFF34F8FBFF36F8FFEE754260096009EE9
:10143000542E07D0502080F31188BFF34F8FBFF395
:101440006F8FFEE7002C13D0002811D00A9E206376
:10145000022084F8510000200390029404A8019017
:101460000096280000F043F8200000F095F801E015
:1014700000200490049806B070BD2DE9F84384B0B4
:1014800006000F0091469846484680B2800001F061
:1014900089FB0500002D0BD0542001F083FB0400D4
:1014A000002C01D0256304E0280001F005FC00E0D9
:1014B0000024002C16D00D990C98002284F851209D
:1014C0000022039202940191009043461FFA89F989
:1014D0004A463900300000F00AF8200000F05CF8BD
:1014E000012001E05FF0FF3005B0BDE8F0832DE999
:1014F000F84305001E000A9F386B00EB8200B0F134
:1015000004085FEAD8085FEAC80818F00700002856
:1015100007D0502080F31188BFF34F8FBFF36F8F38
:10152000FEE7002200E0521C102A07D2885C07EB7D
:10153000020383F83400885C0028F4D1DDF82090A1
:10154000002087F84300B9F1070F01D35FF00609C7
:10155000099CC7F82C90C7F844900020B864381D47
:1015600001F05FFC17F1180001F05BFC3F61D9F15D
:101570000709C7F818907F620020F864002087F8F8
:101580005000320029004046FFF760FE3860002C12
:1015900000D02760BDE8F18338B50400FFF7C2FE34
:1015A000DFF8BC130868401C0860DFF8B8532868EF
:1015B000002806D12C60086801280DD100F0ECF954
:1015C0000AE0DFF8C8030068002805D1E06A29684E
:1015D000C96A884200D32C60DFF8B4030168491C53
:1015E0000160DFF8B0130A680123E06A83401A4300
:1015F0000A60211DDFF8F023E36A1420434302EB65
:10160000030001F011FCFFF7A7FEDFF8800300687C
:1016100000280DD02868C06AE16A884208D25FF0CD
:101620008050DFF878140860BFF34F8FBFF36F8FDF
:1016300031BD10B504000020002C14D0DFF8580490
:101640000068002807D0502080F31188BFF34F8F27
:10165000BFF36F8FFEE700F059F80021200000F083
:1016600037FA00F059F8002808D15FF08050DFF811
:101670002C140860BFF34F8FBFF36F8F10BD10B5F0
:1016800086B0002004900020039005AA03A904A8B6
:10169000FFF7E0F9DFF810440498029003980190F6
:1016A000002000900023059ADFF800140FF2B92003
:1016B000FFF7A2FE20602068002801D0012000E092
:1016C0000020012817D1502080F31188BFF34F8FDD
:1016D000BFF36F8F5FF0FF30DFF8D8130860012091
:1016E000DFF8A81208600020DFF8CC130860FFF7CD
:1016F000D2FD06B010BD10F1010FFAD1502080F3D9
:101700001188BFF34F8FBFF36F8FFEE7DFF88803B9
:101710000168491C0160704770B500240025DFF89E
:1017200078633068002807D1502080F31188BFF318
:101730004F8FBFF36F8FFEE7FFF7F4FD3068401E59
:1017400030603068002855D1DFF8140200680028A6
:1017500026D14FE0C868C46814F1180001F08BFB73
:10176000201D01F088FBDFF82C120A680123E06AD3
:1017700083401A430A60211DDFF86C22E36A1420BB
:10178000434302EB030001F04FFBE06ADFF8D411A2
:101790000968C96A884203D30120DFF83013086062
:1017A000DFF80C1308680028D4D1002C01D000F019
:1017B0005EF9DFF808633468002C0CD000F01EF8E6
:1017C000002803D00120DFF804130860641E002CF9
:1017D000F4D100203060DFF8F4020068002809D05E
:1017E00001255FF08050DFF8B4120860BFF34F8F1F
:1017F000BFF36F8FFFF7B0FD280070BDF8B500256F
:10180000DFF894020068002867D1DFF8AC020468B2
:10181000641C0460002C1AD1DFF8A4120868006868
:10182000002807D0502080F31188BFF34F8FBFF3FB
:101830006F8FFEE70868DFF88C2213680B6010607A
:10184000DFF884020168491C016000F010F9DFF83C
:1018500064623068844230D322E0381D01F00BFB13
:10186000B86A002803D017F1180001F004FBDFF874
:1018700024110A680123F86A83401A430A60391D5B
:10188000DFF86421FB6A1420434302EB030001F0FC
:10189000CBFAF86A33490968C96A884200D301253E
:1018A000DFF81C1208680068002812D00868C068B9
:1018B000C76878688442D0D230602A480068DFF870
:1018C0002811C26A14204243885802280AD30125ED
:1018D00008E05FF0FF303060EFE7DFF8E00101681B
:1018E000491C0160DFF8E4010068002800D00125F0
:1018F0002800F2BDDFF8A0010068002804D0012014
:10190000DFF8C81108602AE00020DFF8C011086085
:1019100020480068B0FA80F1D1F11F011422324B47
:1019200002FB01F01858002807D1502080F31188DD
:10193000BFF34F8FBFF36F8FFEE7514303EB0100FF
:10194000416849684160416810F10802914202D142
:101950004168496841604068C06802490860704752
:10196000501400204014002080B500F03FF81E48BD
:1019700000680228F9D35FF08050DFF82811086072
:10198000BFF34F8FBFF36F8FEFE700005C140020B1
:101990006C1400205814002038B5002407E01248C9
:1019A000142101FB04F1084401F02CFA641C072CFB
:1019B000F5D3DFF89841200001F024FADFF89051C8
:1019C000280001F01FFADFF8E80001F01BFA1548C3
:1019D00001F018FA324801F015FADFF8E40004606B
:1019E000DFF87001056031BDE011002038B514E06A
:1019F000FFF798FC0B48C068C468201D01F03BFA53
:101A0000DFF840010168491E01602868401E286017
:101A1000FFF7A2FC200000F009F8034D2868002819
:101A2000E6D131BDE41300204C14002010B50400B1
:101A300094F85100002806D1206B01F03DF92000F8
:101A400001F03AF910BD94F85100012803D12000AB
:101A500001F032F9F6E794F851000228F2D0502054
:101A600080F31188BFF34F8FBFF36F8FFEE7DFF86E
:101A7000501008680068002805D15FF0FF30DFF8DB
:101A80003410086006E00868C068C0684068DFF885
:101A900024100860704700007814002004ED00E076
:101AA000F813002004ED00E0741400203031000829
:101AB000D013002070140020541400206014002063
:101AC00044140020481400206814002064140020EE
:101AD000F8B505000C001A4806681B4F3868001D51
:101AE00001F0C9F9002807D138681B490A680123A9
:101AF000C06A83409A430A6015F1010F07D1002C98
:101B000005D03868011D154801F08EF916E0AD19B1
:101B100038684560B54206D23868011D0D48006836
:101B200001F08EF90AE03868011D0D48006801F0E7
:101B300087F90C4801688D4200D20560F1BD0000B4
:101B4000541400205014002040140020A81300203A
:101B5000BC1300204814002058140020F813002063
:101B6000441400207014002080B50168406800F023
:101B700076FCC0B202BD80B50168406800F050FC40
:101B8000C0B202BD417A652901DB01202FE0417A14
:101B9000652902DB64214172FFE7427A4FF4E86174
:101BA0004A43642192FBF1F212F5087201680029A0
:101BB00005D192B2521E40680068426316E0016887
:101BC000042905D192B2521E4068006882630DE07C
:101BD0000168082905D192B2521E40680068C263AC
:101BE00004E092B2521E4068006802640020704710
:101BF00000B500BF130096469446103928BFA0E8F0
:101C00000C50FAD85FEA417C28BF0CC048BF40F8AE
:101C1000042BC90728BF20F8022B48BF00F8012B6E
:101C200000BD000080B50748016851F01001016057
:101C30000320FEF7EBFF002001F030F9FEF71EFE57
:101C4000002002BD00200240103A07D330B4B1E8B2
:101C50003810103AA0E83810F9D230BC530724BF2E
:101C6000B1E80810A0E8081044BF51F8043B40F860
:101C7000043BD20724BF31F8022B20F8022B44BFCB
:101C80000B7803707047121F17D35B0009D151F80E
:101C9000043B20F8023B1B0C121F20F8023BF6D23B
:101CA0000BE051F8043B00F8013B1B0A20F8023B13
:101CB0001B0C121F00F8013BF3D238BF121D521E3D
:101CC00024BF11F8013B00F8013BF8D87047000031
:101CD000010000200A0012B2842A03D009B2C91CF4
:101CE00009180800704780B5FFF7C9FC002002BD45
:101CF00038B584B004000D006069002815D0A069D3
:101D0000002812D0B4F90800FFF7E2FFA1690291A0
:101D10006169019100902B00226921686068FFF7DA
:101D20006BFB0390039805B030BDB4F90800FFF7D2
:101D3000CFFF03A9019100902B00226992B2216884
:101D40006068FFF79AFB0128ECD00020EBE7000069
:101D50002DE9FC410400002C01D10120DFE12078B5
:101D6000C0076BD5DFF8DC05016811F00C01042910
:101D700007D0016811F00C0108290CD10068C003DC
:101D800009D5DFF8BC050068800357D560680028D6
:101D900054D10120C3E16068B0F5803F06D1DFF87F
:101DA000A005016851F48031016026E060680028D8
:101DB0000AD1DFF88C05016831F4803101600168D7
:101DC00031F48021016018E06068B0F5A02F0AD1DD
:101DD000DFF86C05016851F480210160016851F45D
:101DE0008031016009E0DFF85805016831F4803185
:101DF0000160016831F480210160606800280ED024
:101E0000FEF7FEFD0500DFF838050068800315D4F5
:101E1000FEF7F6FD401B6528F5D303207FE1FEF7B2
:101E2000EFFD0500DFF818050068800306D5FEF712
:101E3000E7FD401B6528F5D3032070E1207880077B
:101E40001ED5DFF80005016811F00C0F07D00168FE
:101E500011F00C0108292CD10068C00329D4DFF847
:101E6000E0040168890704D52169012901D0012016
:101E700055E1016831F0F801626951EAC20101607F
:101E80002078000749D5A069002871D00120DFF82B
:101E9000C8140860FEF7B4FD0500DFF8B804006858
:101EA000800737D4FEF7ACFD401B0328F5D3032091
:101EB00035E1206900281AD00120DFF8A01408605D
:101EC000FEF79EFD0500DFF878040168890706D457
:101ED000FEF796FD401B0328F5D303201FE10168A0
:101EE00031F0F801626951EAC2010160C8E70020DF
:101EF000DFF868140860FEF783FD0500DFF8400492
:101F000000688007BCD5FEF77BFD401B0328F5D396
:101F1000032004E1012000F000FA2078400740F19E
:101F200096800026DFF838542868C00009D4286855
:101F300050F080502860286810F080500090009881
:101F40000126DFF820743868C00524D4386850F4BE
:101F500080703860FEF754FD80463868C0051AD49A
:101F6000FEF74EFDB0EB08006528F6D30320D6E05F
:101F70000020DFF8E4130860FEF742FD0500DFF8FB
:101F8000D40300688007C8D5FEF73AFD401B03283C
:101F9000F5D30320C3E0E068012806D1DFF8C803C9
:101FA000016851F00101016025E0E06800280AD1D4
:101FB000DFF8B4030168490849000160016831F0A5
:101FC0000401016017E0E06805280AD1DFF89803F2
:101FD000016851F004010160016851F001010160E4
:101FE00009E0DFF8840301684908490001600168DD
:101FF00031F004010160E068002810D0FEF700FD18
:102000000700DFF864030068800719D4FEF7F8FCC6
:10201000C01B41F289318842F3D303207FE0FEF7F1
:10202000EFFC0700DFF840030068800708D5FEF7E3
:10203000E7FCC01B41F289318842F3D303206EE0F4
:10204000F6B2012E03D1286830F080502860E06994
:10205000002863D0DFF8EC62306810F00C0008282C
:102060004AD0E069022834D1DFF8007300203860DC
:10207000FEF7C6FC8046DFF8C8522868800107D505
:10208000FEF7BEFCB0EB08000328F4D3032046E0C3
:10209000206AB0F5803F05D1316831F40031A06885
:1020A00001433160316831F47411206A0143606A80
:1020B0000143316001203860FEF7A2FC040028686B
:1020C00080012BD4FEF79CFC001B0328F7D30320D0
:1020D00025E00020DFF894120860FEF791FC040070
:1020E000DFF85C020068800118D5FEF789FC001B50
:1020F0000328F5D3032012E0E069012801D1012073
:102100000DE0306810F48031226A914204D110F45D
:102110007010616A884201D0012000E00020BDE813
:10212000F6812DE9F04104000E00002C01D10120C0
:1021300098E0DFF83C52286810F00700B0420BD25C
:102140002868C008C00030432860286810F00700E5
:10215000B04201D0012085E02078800716D5207894
:10216000400704D57748016851F4E06101602078A8
:10217000000704D57348016851F46051016071494A
:102180000A6832F0F002A06802430A602078C007B3
:1021900032D56068012805D169480068800310D4F1
:1021A00001205FE06068022805D165480068800171
:1021B00007D4012056E062480068800701D401205E
:1021C00050E0604F396889088900606801433960D0
:1021D000FEF716FC8046386810F00C006168B0EB22
:1021E000810F09D0FEF70CFCB0EB080041F28931F9
:1021F0008842F0D3032035E0286810F007008642BB
:102200000BD22868C008C00030432860286810F04E
:102210000700B04201D0012024E02078400706D515
:1022200048490A6832F4E062E06802430A602078B4
:10223000000707D54348016831F46051226951EA2B
:10224000C201016000F010F84A493E4A1268C2F328
:102250000312895CC8403D4908603D48006800F0B1
:102260001DFE0020BDE8F08100B585B001A84249FF
:102270001022FFF7E9FC41480088ADF8000000207B
:1022800000200020002000202E4A116811F00C00D0
:10229000042802D0082802D014E02B4813E001A83B
:1022A000C1F38343C05CC90309D569461268C2F310
:1022B00040428A5C24494843B0FBF2F001E03049D7
:1022C000484300E0204805B000BD20480068704742
:1022D00080B5FFF7FAFF2B491A4A1268C2F30222AF
:1022E000895CC84002BD0F220260164A136813F0D1
:1022F00003034360136813F0F0038360136813F45F
:10230000E063C3601268D20812F4E0620261184808
:10231000006810F007000860704781B00B49096839
:10232000C9084FF47A72B1FBF2F14843009000BF44
:102330000098411E00910028F9D101B070470000BB
:10234000001002400410024000127A000800002031
:102350000400002024100240800442420000424257
:102360001C100240007000402010024060004242F9
:1023700000200240C4300008B43000086A0B000896
:1023800000093D002831000810B50400002C01D1DF
:10239000012014E094F83D00002805D1002084F8C5
:1023A0003C002000FEF7D6FA022084F83D00211DF3
:1023B000206800F038FA012084F83D00002010BDAC
:1023C0000168C96851F001010268D160016889683B
:1023D00011F00701062905D00168096851F00101D3
:1023E000006801600020704710B50400002C01D186
:1023F000012014E094F83D00002805D1002084F865
:102400003C00200000F08AFD022084F83D00211DE0
:10241000206800F008FA012084F83D00002010BD7B
:1024200010B504000122206800F01EFB2068DFF8D0
:102430009810884205D12068406C50F40040216813
:1024400048642068806810F00700062805D02068DE
:10245000006850F0010021680860002010BD10B530
:1024600004000022206800F0FFFA2068DFF858100E
:10247000884211D12068006A41F2111108420BD143
:102480002068006A40F24441084205D12068406C4F
:1024900030F40040216848642068006A41F211115C
:1024A00008420BD12068006A40F24441084205D13D
:1024B000206800684008400021680860012084F816
:1024C0003D00002010BD0000002C014010B50400AC
:1024D0002068006980071AD52068C068800716D573
:1024E0007FF0020021680861012020772068806960
:1024F00010F0030F03D0200000F011FD05E02000D4
:1025000000F00EFD200000F00CFD00202077206878
:10251000006940071AD52068C068400716D57FF0CB
:10252000040021680861022020772068806910F487
:10253000407F03D0200000F0F2FC05E0200000F016
:10254000EFFC200000F0EDFC0020207720680069FF
:1025500000071AD52068C068000716D57FF008006C
:1025600021680861042020772068C06910F0030FFB
:1025700003D0200000F0D3FC05E0200000F0D0FCE8
:10258000200000F0CEFC0020207720680069C00603
:102590001AD52068C068C00616D57FF010002168E3
:1025A0000861082020772068C06910F4407F03D0BC
:1025B000200000F0B4FC05E0200000F0B1FC200099
:1025C00000F0AFFC0020207720680069C0070AD522
:1025D0002068C068C00706D57FF001002168086147
:1025E0002000FEF7CCFD2068006900060AD52068AF
:1025F000C068000606D57FF08000216808612000D1
:1026000000F090FC2068006940060AD52068C06888
:10261000400606D57FF0400021680861200000F0E8
:1026200082FC2068006980060AD52068C0688006A0
:1026300006D57FF0200021680861200000F074FCBE
:1026400010BD38B504000D0094F83C00012801D1FC
:10265000022073E0012084F83C00022084F83D0051
:10266000002A06D0042A1BD0082A31D00C2A46D0D2
:102670005DE02900206800F008F92068806950F0CA
:102680000800216888612068806930F004002168B2
:10269000886120688169286901432068816146E07A
:1026A0002900206800F01DF92068806950F400605E
:1026B000216888612068806930F4806021688861C1
:1026C00020688069296950EA0120216888612EE02C
:1026D0002900206800F036F92068C06950F0080031
:1026E0002168C8612068C06930F004002168C861B1
:1026F0002068C169286901432068C16117E0290089
:10270000206800F04FF92068C06950F4006021682B
:10271000C8612068C06930F480602168C8612068A1
:10272000C069296950EA01202168C861FFE70120DA
:1027300084F83D00002084F83C00002032BD10B534
:10274000040094F83C00012801D102206AE0012035
:1027500084F83C00022084F83D002068806830F056
:10276000770030F47F4022689060086800284DD0E0
:1027700010284BD0202849D0302847D040283BD0C3
:10278000502825D060282DD0702807D0B0F5805F64
:1027900003D0B0F5005F0ED03DE03CE0CB684A6866
:1027A0008968206800F055F92068806850F077004B
:1027B000216888602FE0CB684A688968206800F04B
:1027C00048F92068806850F480402168886022E0E1
:1027D000CA684968206800F00FF95021206800F0AD
:1027E00030F918E0CA684968206800F017F96021DC
:1027F000206800F026F90EE0CA684968206800F0F9
:10280000FBF84021206800F01CF904E0096820680A
:1028100000F017F9FFE7012084F83D00002084F85C
:102820003C00002010BD10B40368704CA04208D0DA
:10283000B0F1804F05D06E4A904202D06D4A90426E
:1028400003D133F070034A681343A04208D0B0F1BB
:10285000804F05D0664A904202D0664A904203D12A
:1028600033F44073CA68134333F080034A69134357
:1028700003608A68C2620A688262A04201D1096963
:1028800001630121416110BC704770B4026A5208B3
:1028900052000262046A4568836933F070039B0842
:1028A0009B000A68134334F002048A6814434F4EB5
:1028B000B04205D134F00804CA68144334F004046B
:1028C000B04207D135F4807535F400754A69154377
:1028D0008A6915434560836149684163046270BC3D
:1028E000704770B4026A32F010020262036A4468F0
:1028F000826932F4E04232F440720D6852EA0522F5
:1029000033F020038D6853EA0513384DA84206D1F1
:1029100033F08003CE6853EA061333F04003A84235
:1029200009D134F4806434F400644D6954EA8504B8
:102930008D6954EA85044460826149688163036259
:1029400070BC704770B4026A32F480720262046A2A
:102950004568C36933F070039B089B000A68134302
:1029600034F400748A6854EA0224204A904206D162
:1029700034F40064CE6854EA062434F4806490424F
:1029800009D135F4805535F400554A6955EA0215E8
:102990008A6955EA02154560C3614968C1630462EA
:1029A00070BC704730B4026A32F480520262036A2B
:1029B0004468C26932F4E04232F440720D6852EA6F
:1029C000052233F400538D6853EA0533074DA842BE
:1029D00004D134F480444D6954EA85144460C261E2
:1029E00049680164036230BC70470000002C01405C
:1029F000000400400008004010B4046A036A5B0849
:102A00005B000362836933F0F00353EA021334F08E
:102A10000A0421438361016210BC704710B4036A49
:102A200033F0100303628369046A33F4704353EA9A
:102A3000023334F0A00454EA01148361046210BC30
:102A40007047826832F0700251F0070111438160D3
:102A5000704710B4846834F47F44114351EA032171
:102A60002143816010BC704710B4012411F01F0392
:102A700014FA03F3046A34EA03030362036A11F0ED
:102A80001F0112FA01F11943016210BC70470000E6
:102A900010B490F83C20012A01D102201CE0012250
:102AA00080F83C20022280F83D20026853680268CA
:102AB000946833F070030A68134334F08004496863
:102AC0000C4301684B6001688C60012180F83D1067
:102AD000002180F83C10002010BC704703490A68B0
:102AE0000348007882180A60704700BF3C14002039
:102AF0000C00002038B50400FDF782FF050014F13A
:102B0000010F02D0044800780419FDF779FF401B3B
:102B1000A042FAD331BD00BF0C000020EFF30980C2
:102B2000BFF36F8F1D4B1A6820E9F00F106008B5D6
:102B30004FF0500080F31188BFF34F8FBFF36F8FBA
:102B4000FEF7D8FE4FF0000080F31188BDE8084082
:102B500019680868B0E8F00F80F30988BFF36F8F39
:102B600070470E4B19680868B0E8F00F80F30988C9
:102B7000BFF36F8F4FF0000080F311884EF00D0E01
:102B8000704707480068006880F3088862B661B63D
:102B9000BFF34F8FBFF36F8F00DF000040140020A2
:102BA00008ED00E02DE9F84304000025FEF7AEFD36
:102BB000DFF83492D9F80000002801D100F0B5F810
:102BC0008A4F3868044266D1002C15D088480068C6
:102BD000041914F0070F0FD014F1080014F00704C3
:102BE000041B14F0070F07D0502080F31188BFF3A7
:102BF0004F8FBFF36F8FFEE7002C4CD0DFF8F481CE
:102C0000D8F80000A04246D37B480100066801E0E6
:102C1000310036687068A04202D230680028F7D1CF
:102C2000D9F80000864236D071480A68036802EB82
:102C3000030532680A60006840007168091B884219
:102C400014D206EB040111F00700002807D0502031
:102C500080F31188BFF34F8FBFF36F8FFEE770686B
:102C6000001B48607460080000F08EF8D8F800106F
:102C70007068091AC8F800106048D8F80010026897
:102C8000914202D2D8F8001001607168386801439F
:102C9000716000203060FEF73FFD15F0070000284E
:102CA00007D0502080F31188BFF34F8FBFF36F8F91
:102CB000FEE72800BDE8F28310B50100002833D0FC
:102CC0004B480068404201EB0004484960680A68CC
:102CD000104207D1502080F31188BFF34F8FBFF30C
:102CE0006F8FFEE72068002807D0502080F31188FE
:102CF000BFF34F8FBFF36F8FFEE760680A68104223
:102D000012D0206800280FD1626808688243626090
:102D1000FEF7FCFC37490A68606882180A602000E8
:102D200000F032F8FEF7F8FC10BD10B44FF47D62ED
:102D30003348010011F0070F04D0C91DC908C900AC
:102D4000521A82182C480160002343605218284808
:102D50000068121AD208D2002348026000230468D7
:102D60006360002304682360521A4A6000680860A8
:102D70004868224A106048681E4908605FF00040B9
:102D80001A49086010BC704710B41B4A00E0126872
:102D900011688142FBD3110053681944814204D168
:102DA000516840684118516010000100436819449F
:102DB0001368994210D10C4913680C68A34208D0DB
:102DC000436811684968CB1843601168096801605D
:102DD00004E00968016001E011680160824200D0EE
:102DE000106010BC70470000201400202C1400203C
:102DF0003831000824140020181400202814002062
:102E00001000002010F1080141605FF0FF31816087
:102E100010F10801C16010F1080101610021016099
:102E2000704700210161704742684A6093688B6077
:102E300093685960916008610168491C016070479E
:102E400010B40B6813F1010F01D1026907E010F112
:102E5000080200E0526854682468A342FAD253681A
:102E60004B604B6899608A60516008610168491C39
:102E7000016010BC70470169826843689A604268CB
:102E800083685A604A68824201D182684A6000229F
:102E900002610868401E08600868704718B587B06E
:102EA00001000020002000221E20FDF7B3FE1E209E
:102EB000FDF7C1FE1548016851F00401016000688A
:102EC00010F004000090009801A902A8FFF70BFA87
:102ED000FFF7FEF940000E49B0FBF1F0401E0D4C2B
:102EE0000D49216040F2E731E1606060002020611F
:102EF0000020A0602000FFF747FA002803D120003F
:102F0000FFF75EFA00E0012008B010BD1C1002407F
:102F100040420F00401300200008004070477047F7
:102F20007047704770477047704700000F49086846
:102F300050F0010008600E4A13680E480340136009
:102F40000B680D4803400B60086830F4802008606F
:102F5000106830F4FE0010605FF41F00074908603D
:102F60005FF00060064908607047000000100240F2
:102F7000041002400000FFF8FFFFF6FE08100240B8
:102F800008ED00E07047FEE7FEE7FEE7FEE770476A
:102F900080B50748FDF75AFB01BD80B50548FFF72E
:102FA00095FA01BD80B50448FFF790FA01BD000015
:102FB00080130020001300204013002030B450F88C
:102FC000041B79B10268436802440830DC0744BF3F
:102FD000A9F10104E31852F8045B43F8045B091FEC
:102FE000F9D1ECE730BC704710B507497944183186
:102FF000064C7C44163404E00A68081D11448847D6
:103000000146A142F8D110BD0800000028000000D0
:103010000BDAFFFF70140000100000200000000019
:103020009DFFFFFF10000000BC000000000000201A
:103030000000000000F00DF8002801D0FFF7D4FFD9
:10304000AFF300800020AFF30080FDF715FF00F024
:1030500002F80120704700F001B80000074638462A
:1030600000F002F8FBE7000080B5AFF30080024AF1
:1030700011001820ABBEFBE726000200F430000868
:10308000070B000800000000000000000001000025
:103090000000000000000000003100089B0A00084A
:1030A000000000000000000000020000000000001E
:1030B0000000000002030405060708090A0B0C0DB6
:1030C0000E0F1010000000000000000001020304B9
:1030D0000607080901488047014800472D2F0008CE
:1030E0000D310008AAAAAAAA100000000024F400CA
:1030F0000100000064656661756C745461736B0057
:1031000043414E5F54585F5461736B00AFF30080CE
:10311000AFF30080FFF78EFF00000000000000000A
:103120000000000000000000000000000102030495
:1031300049444C450000000008000000FFF7FEBFB6
:10314000FFF7FEBFFFF7FEBFFFF7FEBFFFF7FEBFB3
:10315000FFF7FEBFFFF7FEBFFFF7FEBFFFF7FEBFA3
:10316000FFF7FEBFFFF7FEBFFFF7FEBFFFF7FEBF93
:10317000FFF7FEBFFFF7FEBFFFF7FEBFFFF7FEBF83
:10318000FFF7FEBFFFF7FEBFFFF7FEBFFFF7FEBF73
:10319000FFF7FEBFFFF7FEBFFFF7FEBFFFF7FEBF63
:1031A000FFF7FEBFFFF7FEBFFFF7FEBFFFF7FEBF53
:1031B000FFF7FEBFFFF7FEBFFFF7FEBFFFF7FEBF43
:1031C000FFF7FEBFFFF7FEBFFFF7FEBFFFF7FEBF33
:0C31D000FFF7FEBFFFF7FEBFFFF7FEBFDA
:040000050800310DB1
:00000001FF
