:020000040800F2
:10000000F01700206D1D0008D11C0008D31C00084B
:10001000D51C0008D71C0008D91C000800000000EF
:10002000000000000000000000000000BB0A000803
:10003000DB1C000800000000750A00080D0A00081B
:10004000911D0008951D0008991D00089D1D0008C0
:10005000A11D0008A51D0008A91D0008AD1D000870
:10006000B11D0008B51D0008B91D0008BD1D000820
:10007000C11D0008C51D0008C91D0008CD1D0008D0
:10008000D11D0008D51D0008D91D0008DD1D000880
:10009000DD1C0008E11D0008E51D0008E91D000841
:1000A000ED1D0008F11D0008F51D0008F91D0008F0
:1000B000FD1D0008011E0008E31C0008051E0008C5
:1000C000091E00080D1E0008111E0008151E00085C
:1000D000191E00081D1E0008211E0008251E00080C
:1000E000291E00082D1E0008311E0008F0B585B03D
:1000F00050260B9D25B986F3118800F011FAFEE712
:100100000C9C24B986F3118800F00AFAFEE7542704
:100110000097009F542F04D086F3118800F000FA56
:10012000FEE70A9E25630027022584F851500397B5
:10013000029404AD0195009600F034F8204600F0DA
:100140006DF8049805B0F0BD2DE9F8430646174652
:1001500084B088469946B80000F08CFA05001CD09F
:10016000542000F087FA040014D00D990C982563F0
:10017000002284F8512003920191009002944B4692
:100180003A464146304600F00DF8204600F046F869
:10019000012004E0284600F0F6FA4FF0FF3005B0E9
:1001A000BDE8F0832DE9F0470A9E8146306B00EBF5
:1001B0008202101FC0084FEAC00A00228C5CB018EF
:1001C00080F83440885C10B1521C102AF6D3089D88
:1001D000002086F84300062D099C88BF062506F1FD
:1001E0004407F5623D6078609846301D00F029FBB9
:1001F00006F1180000F025FB3661C5F10705B56171
:1002000076620020B860387342464946504600F096
:1002100071FB306004B12660BDE8F0872DE9F04144
:1002200000F067F8DFF8B453DFF8C883E86C401CCF
:10023000E8641426A86A28BBAC62E86C012829D1BE
:10024000002706FB07F0404400F0EEFA7F1C072F62
:10025000F7D305F1740000F0E7FA05F18807384696
:1002600000F0E2FA284600F0DFFA05F1140000F091
:10027000DBFA05F1380000F0D7FA05F17400E86206
:100280002F6307E0A86D28B9E06AA96ACA6A90429C
:1002900028BFAC62A86E401CA86600F093F94643E4
:1002A000211D08EB060000F0CFFA00F09EFBA86DC0
:1002B00030B100F03AF903D200F095F900F030F9CE
:1002C000BDE8F08180B588B1DFF81023116F21B14E
:1002D00000F03CF800F024F9FEE7116F491C1167AB
:1002E000002100F089F900F03BF808B900F013F99B
:1002F00001BD044600F060BB80B586B000210591C9
:10030000049103AA04A905A800F0AAFB0598049982
:1003100002900022009201910023039A0FF24C31C7
:100320000FF21120FFF7E2FE70B100F00FF800F0BD
:10033000F7F8DFF828034FF0FF31C166012282652C
:100340000021016500F0F4FA07B000BD502080F3F1
:1003500011887047DFF80403016F491C016770477B
:1003600070B5DFF87862306F0024002520B900F006
:1003700043F800F0D5F8FEE700F01EFB306F401E9A
:100380003067306F002836D1F06CD8B933E0F068B0
:10039000C46800F035F800F012F9E06A716DDFF81A
:1003A000B832012282401143716514225043211D4D
:1003B000184400F049FAE06AB16ACA6A904224BF60
:1003C0000121316630680028E1D10CB100F0EAF873
:1003D000F46D3CB100F018F808B101203066641EDD
:1003E000F8D1F565306E30B1DFF874124FF08050FF
:1003F000012500F094F8ECE0502181F3118870475A
:1004000004F1180000F046BA2DE9F843DFF8CC718A
:10041000386F002600284ED13C6D641C3C6510D11D
:10042000F86A006820B1FFF7E7FF00F079F8FEE70F
:10043000F86A396BF9623863786E401C786600F0B0
:10044000B1F8F86EDFF8109284424FF0140825D30B
:100450001AE0281D00F01EFAA86A18B105F118006C
:1004600000F018FAE86A796D01228240114379653B
:1004700008FB00F0291D484400F0E6F9E86AB96A73
:10048000CA6A904228BF0126F86A006880B1F86AFB
:10049000C168CD6868688442DBD2F866B86AC06A11
:1004A00008FB00F059F80010022907D3012605E0E7
:1004B0004FF0FF30F1E7F86D401CF865386E00B181
:1004C00001268DE0DFF81421106F10B101211166B3
:1004D000704710661421506DB0FA80F3C3F11F030A
:1004E0004B43DFF87411C85838B9502181F3118893
:1004F000BFF34F8FBFF36F8FFEE7C81800F10803FB
:10050000416849684160994204BF49684160406858
:10051000C16891627047DFF848114FF08050086061
:10052000BFF34F8FBFF36F8F7047A86AC16AE06A4D
:100530008142704770B5DFF8BC40DFF8205111E010
:1005400000F03AFA286AC668301D00F0A3F9E86C9A
:10055000401EE864686B401E686300F046FA30464F
:1005600000F009F8686B0028EAD121680229F9D364
:10057000FFF7D1FFF6E710B5044694F8510040B9F3
:10058000206B00F000F92046BDE8104000F0FBB8F9
:1005900010BD0128F7D00228FAD0FFF7D7FEFFF7E9
:1005A000BFFFFEE70D49C86A006810B94FF0FF327F
:1005B00003E0C86AC268D0684268CA667047201DF6
:1005C00000F068B90122E06A696D824011436965F3
:1005D000704700F00AFA284670BD0000581200204B
:1005E0003046BDE8F2831E4A4FF0805111607047DB
:1005F00000000000F4120020F8B5184D2F6D0C46D5
:10060000A96A0646081D00F045F930B9A86A696D67
:10061000C06A012282409143696516F1010F05D13C
:1006200024B1A86A011D05F138001BE0A86AF6197B
:100630004660BE42A86A05D2011D286BBDE8F440A1
:1006400000F00FB9011DE86A00F00BF9E86E864270
:1006500038BFEE66F1BD0000F412002058120020F1
:1006600004ED00E0BDE8F44000F0EEB849444C452C
:10067000000000002DE9F8430446FFF76BFE694FC8
:10068000B8684FF00009002508BB07F1180307F10F
:10069000180113F0070F4FF47D600A4605D0CA1DFC
:1006A000D208D200C2F57D60081880180838C0084A
:1006B000C0003A607D60B86045600560831A536091
:1006C000106050683861F8604FF0004078614FF07A
:1006D00050087869044233D194B3083414F0070FFA
:1006E0001FBF04F1080004F00704041B14F0070FF7
:1006F00002D000F041F8FEE714B3F868A0421FD31F
:100700003E6839467068A04223D2306800281CBF7A
:1007100031460646F6D11CE0301D02517460084691
:1007200000F05BF87168F8683A69401AF860904226
:1007300038BF3861786901437160356009F0070599
:10074000FFF70EFE15B100F017F8FEE74846BDE8CA
:10075000F283B8688642F3D00A683068086002F114
:1007600008097268121B112ADCD3311911F0070035
:10077000D2D000F001F8FEE788F31188BFF34F8F65
:10078000BFF36F8F7047002800D1704738B5A0F1D4
:100790000804244D61686A695023114202D100F0B7
:1007A00015F8FEE7206810B100F010F8FEE791435D
:1007B0006160FFF7CFFDE96860684118E960204695
:1007C00000F00BF8BDE83140FFF7CABD83F3118894
:1007D000BFF34F8FBFF36F8F704730B511490A4693
:1007E00000E01A4613688342FBD35368D41884424E
:1007F00003D14068C3185360104643681468C51895
:10080000A54208D189688C4204D06168CB18436046
:10081000246800E00C460460824218BF106030BDBE
:10082000000000001C0000204FF0FF3200F1080122
:1008300082604160C16000F1080202610021016034
:10084000704700210161704710B542684A609368A3
:100850008B6094686160916008610168491C016067
:1008600010BD30B50A6812F1010F08BF036907D047
:1008700000F1080300E023465C682568AA42FAD22A
:100880005A684A6091608B60596008610168491C30
:10089000016030BD4368016982689A60836842687C
:1008A0005A604A68824204BF83684B60002202613A
:1008B0000868401E08600868704730B4002513E0DF
:1008C00050F8042BD30744BFA9F101039A18091F5C
:1008D000042942F8045BFAD213468C0744BF158002
:1008E0009B1CC90748BF1D7050F8041B0029E7D1A5
:1008F00030BC7047490810B54900A0F10C034FF017
:10090000807459609C600FF20D01196040F8202D31
:10091000203810BD44494A68502012F1010F80F37D
:100920001188BFF34F8FBFF36F8F00D0FEE7FEE754
:100930001CB53E490A780192FF230B7007220C7800
:100940008DF800409DF80000374C00F050002070FA
:10095000A26006E0401EA0609DF8000040008DF8F7
:100960000000A0689DF800201306F3D4C0F1070230
:10097000042A02D000F018F8FEE7000200F4E0605C
:10098000A060019808702A48016841F47001016074
:10099000026842F07042026000F04EF80020606091
:1009A00000F09BF8002016BD502080F31188BFF3A3
:1009B0004F8FBFF36F8F7047502080F31188BFF3C4
:1009C0004F8FBFF36F8F18494A68521C012A4A6043
:1009D0000AD118490A68130606D080F31188BFF3BC
:1009E0004F8FBFF36F8FFEE770470F49486838B9E4
:1009F000502080F31188BFF34F8FBFF36F8FFEE756
:100A0000401E486008BF80F31188704780B5FFF72B
:100A1000CBFFFFF7F9FC18B106494FF08050086092
:100A2000002282F3118801BD0000002000E400E0F4
:100A300020ED00E004ED00E00748084B00210160D4
:100A400081604FF47A721968B1FBF2F2521E426073
:100A500007210160704700BF10E000E0180000208F
:100A6000034B036003F1540008608021116070475C
:100A700004100020EFF30980BFF36F8F1D4B1A683D
:100A800020E9F00F106008B54FF0500080F3118896
:100A9000BFF34F8FBFF36F8FFFF714FD4FF00000D0
:100AA00080F31188BDE8084019680868B0E8F00FC5
:100AB00080F30988BFF36F8F70470E4B1968086881
:100AC000B0E8F00F80F30988BFF36F8F4FF000009C
:100AD00080F311884EF00D0E7047074800680068DB
:100AE00080F3088862B661B6BFF34F8FBFF36F8F94
:100AF00000DF00008012002008ED00E02DE9F8433F
:100B0000040016D02078DFF8A464C10713D57068FC
:100B100000F00C00042807D0706800F00C000828D2
:100B200040D17068C1033DD53068810303D560684A
:100B3000002800F0F4802078DFF88074810719D550
:100B4000706810F00C0F07D0706800F00C000828D7
:100B500060D17068C1035DD43068810703D5206916
:100B6000012840F0DC803168606921F0F80141EA39
:100B7000C00131602178080770D5A069DFF8401402
:100B8000002865D001220A6000F032FA0546706A3A
:100B9000810700F1C68000F02BFA401B0228F6D92D
:100BA000032035E16068B0F5803F04D1306840F43F
:100BB0008030306014E008B930680AE0B0F5A02F4A
:100BC000306806D140F480203060316841F48031D3
:100BD00005E020F480303060316821F480213160FC
:100BE000606858B100F004FA054630688103A2D469
:100BF00000F0FEF9401B6528F7D3D1E700F0F8F9C3
:100C000005463068810396D500F0F2F9401B65284F
:100C1000F7D3C5E7206970B10121396000F0E8F928
:100C200005463068810700F1B68000F0E1F9401B0D
:100C30000228F6D9B4E7386000F0DAF905463168E1
:100C4000880797D500F0D4F9401B0228F7D9A7E709
:100C5000086000F0CDF90546706A810770D500F094
:100C6000C7F9401B0228F7D99AE708B9306A09E0AA
:100C70000528306A06D140F004003062306A40F046
:100C8000010005E0400840003062306A20F00400B6
:100C9000306241F28938E06868B100F0A9F9814614
:100CA000306A810700F1848000F0A2F9A0EB09000E
:100CB0004045F5D374E700F09BF98146306A81071F
:100CC00076D500F095F9A0EB09004045F6D367E72B
:100CD00000F08EF9401B02287BD961E700F088F90B
:100CE000001B022840F28F805AE700F093F8044678
:100CF0003068810140F18B8000F07AF9001B0228F6
:100D0000F6D94DE701280AD07068226A00F48031D4
:100D1000914202BF00F47010616A884277D00120CE
:100D200076E0DFF88C020168C9084FF47A72B1FBF3
:100D3000F2F2009200BF0098411E00280091F9D104
:100D40002078410739D5F0690025C10009D4F06940
:100D500040F08050F0610125F06900F08050009073
:100D60000098DFF86082D8F80000C1051BD4D8F8DD
:100D7000000040F48070C8F8000000F039F98146A6
:100D8000D8F80000C1050ED400F032F9A0EB09003C
:100D90006528F5D304E73068616920F0F80040EA7F
:100DA000C1003060E6E6E06801287FF45EAF65E7E9
:100DB0001DB1F06920F08050F061E06938B37168CE
:100DC00001F00C0108299DD002288ED100F022F8F4
:100DD0000546306881013FF57BAF206AB0F5803F62
:100DE00005D17168A06821F4003101437160726817
:100DF000206A616A22F4741202430A43726001207D
:100E000000F009F80446306881017FF567AF0020E3
:100E1000BDE8F2830020386600F0EAB82DE9F04121
:100E20000400884672D0684E00F077F802D200F0D5
:100E30006FF86BD120685D4D810712D5400703D54F
:100E4000696841F4E06169602078010703D568684A
:100E500040F4605068606968A06821F0F0010143C7
:100E600069602178C80749D56068012802D12968DE
:100E70008A0303E00228296802D18A0102D445E0EE
:100E80008A0743D56968890840EA8100686000F0F4
:100E9000AFF807466868616800F00C00B0EB810F9E
:100EA0002CD000F0A5F8C01B41F289318842F1D363
:100EB000032021E02078410705D56A68E06822F424
:100EC000E06202436A602178080706D569682069F4
:100ED00021F4605141EAC001696000F023F86A68BA
:100EE0003A49334BC2F30312895CC8401860324858
:100EF000006800F083F80020BDE8F081306800F061
:100F000007008045D6D200F003F8D3D00120F3E7E4
:100F10003168C90848EAC1013160306800F0070053
:100F2000404570472A4923480A6802F00C03082B01
:100F300000D0704710B500BF28A4C2F38343D2038A
:100F4000E35C08D50968584328A3C1F340415A5CC3
:100F5000B0FBF2F010BD18461E49484310BD1448BE
:100F60001B4A006813681C49C3F30222FFE7895C2F
:100F7000C840704710B50F220260154A136803F08D
:100F800003034360146804F0F0048460136803F4FE
:100F9000E063C3601268D20802F4E06202610A48AA
:100FA000026802F007020A6010BD00000010024053
:100FB0001800002000127A001400002000004242B5
:100FC000800442420070004000200240481C00089B
:100FD0000410024000093D00881D000802030405BA
:100FE000060708090A0B0C0D0E0F10100102000075
:100FF00001484068704700BF0C00002018B501464A
:1010000087B000221E2000F04FF81E2000F069F883
:101010001448154C016841F00401016001A9006801
:1010200000F004000090009802A8FFF7A3FFFFF76C
:1010300096FF0E49216040F2E73240000C49E26021
:10104000B0FBF1F0401E606000222261A2602046E9
:1010500000F05CF818B9204600F065F800E00120C7
:1010600008B010BD1C100240801300200008004092
:1010700040420F000901020002D41F48815470470A
:101080001E4B02F00F021A4402F8041C70471C4B5E
:1010900019684FF6FF020002114000F4E0600843B7
:1010A000184908431860704738B5154B1C68C4F3DD
:1010B0000223C3F10704052C28BF04241D1D072D9E
:1010C00034BF0023DB1E012505FA04F4641E214011
:1010D000994005FA03F35B1E1A401143BDE8344002
:1010E000C8E7010007D4012200F01F01064B8A4027
:1010F000400943F82020704700E400E018ED00E0CC
:101100000CED00E00000FA0500E100E038B5040055
:1011100001D1012032BD00F024F818B900F01DF80B
:1011200000F0FEF80FE00068C16841F00101C16005
:10113000816801F00701062903D0016841F001012F
:1011400001600020704702206870211D206800F0B7
:10115000B0F801206870002032BD002129702046BF
:10116000704704F13C056878704710B50446206864
:1011700001698A0715D5C1688A0712D56FF0020187
:10118000016101222277806910F0030F204602D00E
:1011900000F0C7F803E000F0C5F800F087F8002081
:1011A0002077206801694A0715D5C1684A0712D51A
:1011B0006FF00401016102222277806910F4407F00
:1011C000204602D000F0ADF803E000F0ABF800F0EC
:1011D0006DF800202077206801690A0715D5C168DD
:1011E0000A0712D56FF00801016104222277C06955
:1011F00010F0030F204602D000F093F803E000F057
:1012000091F800F053F80020207720680169CA06A1
:1012100015D5C168CA0612D56FF010010161082208
:101220002277C06910F4407F204602D000F079F8A0
:1012300003E000F077F800F039F80020207720680C
:101240000169CA0708D5C168CA0705D56FF0010151
:101250000161204600F00AF9206801690A0608D5F4
:10126000C1680A0605D56FF080010161204600F0D3
:101270002BF9206801694A0608D5C1684A0605D5D8
:101280006FF040010161204600F01FF920680169FC
:101290008A060AD5C1688A0607D56FF02001016168
:1012A0002046BDE8104000F011B910BD204600F006
:1012B0000EB970B5164E0368164C174DB04218BFE4
:1012C000B0F1804F03D0A84218BFA04209D14A68AC
:1012D00023F070031343B0421CBFB0F1804FA8420B
:1012E00001D0A04203D1CA6823F4407313434A6972
:1012F00023F0800313430360B0428B68C3620A6823
:10130000826202D10969054A11600123436170BDFF
:10131000002C01400008004000040040302C014037
:10132000704770477047000010B58EB000F0D0F8DD
:1013300000F067F801A8102100F0DCF84F48504C8D
:10134000016841F010010160026802F01002009291
:101350000099026842F020020260036803F0200353
:1013600000930099026842F00402026000220068C3
:1013700000F0040000904FF400510098204600F067
:101380007DF94FF400510191012202920021039155
:101390000222049201A9204600F0B0F8394C3A48E4
:1013A000206009214FF08070E06061604FF4801090
:1013B0004FF440216061216101204FF08042002103
:1013C000E076A2602183A176A183204600F074F923
:1013D0000DF11C002EA11C2200F0F4FA002107A838
:1013E00000F03FFBA0621C224FEA0D002FA100F08D
:1013F000E9FA0021684600F034FBE06200F02CFBC3
:10140000FEE700B58FB005A8282100F073F8684604
:10141000142100F06FF84FF48031002206910792FA
:101420000D9101200590099002224FF4E0110C92D9
:101430000E9105A8FFF762FB022101910F204FF4E6
:10144000806100900022039102920492022168467A
:10145000FFF7E4FC0FB000BD80B5012000F030FBC9
:10146000FBE780B5012000F02BFBFBE70068074994
:10147000884208BF00F02CBB7047000018100240E3
:1014800000100140C013002000640040000800402C
:10149000541D00085914000800000000000000005E
:1014A000800000000000000000000000601D000837
:1014B00063140008000000000000000000020000AB
:1014C0000000000000000000704770477047704740
:1014D00080B50748016841F0100101600320FFF763
:1014E000D6FD0020FFF78AFD00F0FAFA002002BDC9
:1014F00000200240002200F05BBB00002DE9F8470D
:101500000027BE465F4A604B4FF00F0882460BE053
:10151000D6683040D06006E094604C68A402F7D5ED
:10152000D0680643D6607F1C0E6836FA07F000F0DC
:10153000A380012000FA07F52E40AE42F3D148689F
:1015400058B301281AD002281FD0032833D01128FD
:1015500017D012281DD04D4CA0421CBF4C4CA042AD
:101560001BD04C4CA0421CBF4B4CA04215D04B4C46
:10157000A0421CBF4A4CA0420FD01EE0D1F80CE0A4
:101580001BE0C86800F1040E17E0C86800F1080EFF
:1015900013E0C86800F10C0E0FE0886810B94FF036
:1015A000040E0AE001284FF0080E14BFCAF81450C8
:1015B000CAF8105001E04FF0000EB6F5807F03D25C
:1015C00050464FEA870C05E0A7F108040AF1040031
:1015D0004FEA840C046808FA0CF5AC430EFA0CF5DB
:1015E0002C4304604868C0009DD51868DFF8B4C07B
:1015F00040F0010018601C6804F001040094BC0075
:101600000098B8085CF8205004F00C0408FA04F9BB
:1016100025EA0909244DAA4508BF00250ED0234D0F
:10162000AA4508BF012509D0214DAA4508BF0225BA
:1016300004D0204DAA450CBF0325042505FA04F467
:1016400044EA09044CF82040F0434C68E403146871
:101650004CBF3443044014604C68A40354684CBF2E
:101660003443044054604C689568E4024CBF46EA39
:10167000050400EA05044FE7BDE8F18702B9090453
:101680000161704700040140181002400000111071
:101690000000121000002110000022100000311084
:1016A000000032100800014000080140000C014019
:1016B000001001400014014038B504001ED094F819
:1016C000200010B9204600F02DFA2068016821F0B2
:1016D00002010160FFF78CFC0546206841688A071B
:1016E0004ED5FFF785FC401B0B28F6D304E0FFF72F
:1016F0007FFC401B0B2846D300F055F8012032BD7B
:10170000016821F080010160607E00F048F80CBFA4
:1017100041F0400121F040010160A07E00F03FF85F
:101720000CBF41F0200121F020010160E07E00F0BB
:1017300036F80CBF21F0100141F010010160207F4C
:1017400000F02DF80CBF41F0080121F00801016004
:10175000607F00F024F80CBF41F0040121F0040187
:101760000160A268E0682169024360690A43616818
:1017700002432068491E0A43C261002161621AE0E7
:1017800000F01EF8054620684168CA07AFD5217EE3
:101790000129B5D1026842F080020260B4E7012855
:1017A000206801687047606A40F40030606205217B
:1017B00084F820107047012084F82000002032BDFA
:1017C000016841F001010160FFF712BC2DE9F84FFB
:1017D00005464FF0000828684669D0F804B08468D0
:1017E000D0F80C90D0F810A08769F10745D5E20732
:1017F00013D501218160A00703D5284600F0F1F937
:101800000BE0600748BF4FF4006806D420074EBFC6
:101810004FF48058284600F0E5F9E00515D52A6810
:101820004FF48071A005916003D5284600F0DBF9E4
:101830000BE0600548BF48F4005806D420054EBFB1
:1018400048F48048284600F0CFF9E00315D52A680F
:101850004FF48031A003916003D5284600F0C5F90C
:101860000BE0600348BF48F4004806D420034EBF95
:1018700048F48038284600F0B9F9300748BF5FEADD
:10188000C96104D52968102048F40078C860700741
:1018900048BF5FEA097105D52A680820D06028464C
:1018A00000F0A5F9B00707D52968C86810F0030F44
:1018B0001CBF284600F09CF9700648BF5FEACA6169
:1018C00004D52968102048F480680861B00648BF34
:1018D0005FEA0A7105D52A6808201061284600F0E1
:1018E00088F9F00607D52968086910F0030F1CBFB6
:1018F000284600F07FF9B00348BF5FEACB6105D509
:101900002A6810205060284600F075F9F00348BF9F
:101910005FEA0B7105D52A6808205060284600F060
:101920006BF9300440D55FEA4B713AD5F00503D529
:10193000F90748BF48F00108B00503D5B90748BF0B
:1019400048F00208700503D5790748BF48F004083D
:10195000300526D517F0700F23D007F07007102F31
:101960000CD0202F0DD0302F0ED0402F0FD0502F65
:1019700010D0602F08BF48F480780DE048F00808C8
:101980000AE048F0100807E048F0200804E048F0BA
:10199000400801E048F080082868816921F0700162
:1019A0008161042029684860B8F1000F08D0686A96
:1019B00048EA000068622846BDE8F24F00F01DB911
:1019C000BDE8F18F103A07D330B4B1E83810103ABF
:1019D000A0E83810F9D230BC530724BFB1E8081092
:1019E000A0E8081044BF51F8043B40F8043BD2077C
:1019F00024BF31F8022B20F8022B44BF0B78037070
:101A00007047121F17D35B0009D151F8043B20F82F
:101A1000023B1B0C121F20F8023BF6D20BE051F8E0
:101A2000043B00F8013B1B0A20F8023B1B0C121F71
:101A300000F8013BF3D238BF121D521E24BF11F82B
:101A4000013B00F8013BF8D8704700000146002038
:101A5000842918BFC81C704780B5FEF74DFC0020D4
:101A600002BD38B5044684B0606900281CBFA06977
:101A700000280D4612D0B4F90800FFF7E7FFA1696E
:101A800002912B4662690192009022692168606888
:101A9000FEF72CFB0390039805B030BDB4F90800A5
:101AA000FFF7D4FF03A9019100902B46226921681A
:101AB000606892B2FEF748FB0128ECD00020EBE70B
:101AC00080B500B90120FEF7FDFB002002BD00003B
:101AD00002494A68087882184A6070470C00002062
:101AE00080B52F48016841F001010160026802F0F1
:101AF000010200920099426842F080524260002246
:101B0000406800F0805000900F2100986FF00100B5
:101B1000FFF7CAFA2348016821F0E06141F0007143
:101B2000016001BD30B585B0044601A81021FFF762
:101B3000E1FC24681C4DAC4230D119481B4C416873
:101B400041F000714160416801F00071009100991D
:101B5000026842F0040202604FF40061006800F085
:101B6000040000900022009801910292039201A9C2
:101B70002046FFF7C3FC4FF48050022101900291F0
:101B80000322049201A92046FFF7B8FC0022052198
:101B90001420FFF789FA1420FFF7A3FA05B030BD2F
:101BA0001810024004000140006400400008014099
:101BB00000B500BF130096469446103928BFA0E830
:101BC0000C50FAD85FEA417C28BF0CC048BF40F8EF
:101BD000042BC90728BF20F8022B48BF00F8012BAF
:101BE00000BD704770477047704770477047704737
:101BF00070477047704770477047704710B50E4A7E
:101C00000E49106840F00100106053680C480B400A
:101C10005360146804401460116821F4802111603D
:101C20004FF41F01506820F4FE00506091604FF0A7
:101C30000060044A106010BD001002400000FFF870
:101C4000FFFFF6FE08ED00E00000000000000000CD
:101C5000010203040607080930B450F8041B79B1E7
:101C60000268436802440830DC0744BFA9F101045C
:101C7000E31852F8045B43F8045B091FF9D1ECE761
:101C800030BC704710B5074979441831064C7C4484
:101C9000163404E00A68081D114488470146A14231
:101CA000F8D110BD08000000280000000FECFFFF75
:101CB000D41300001C000020000000009DFFFFFF67
:101CC0001C00000074000000000000200000000064
:101CD0007047FEE7FEE7FEE7FEE770470248FFF7C2
:101CE00075BD0248FFF741BAC013002080130020E1
:101CF00000F00DF8002801D0FFF7C4FFAFF300801B
:101D00000020AFF30080FFF70FFB00F002F8012086
:101D1000704700F001B800000746384600F002F8AE
:101D2000FBE7000080B5AFF30080024A11001820E5
:101D3000ABBEFBE72600020000000000AAAAAAAA88
:101D40000000000001000000000000001000000082
:101D50000024F40064656661756C745461736B00F3
:101D600043414E5F54585F5461736B000148804794
:101D700001480047FD1B00087D1D0008AFF30080EF
:101D8000AFF30080FFF7B4FF00000000010203047E
:101D9000FFF7FEBFFFF7FEBFFFF7FEBFFFF7FEBF77
:101DA000FFF7FEBFFFF7FEBFFFF7FEBFFFF7FEBF67
:101DB000FFF7FEBFFFF7FEBFFFF7FEBFFFF7FEBF57
:101DC000FFF7FEBFFFF7FEBFFFF7FEBFFFF7FEBF47
:101DD000FFF7FEBFFFF7FEBFFFF7FEBFFFF7FEBF37
:101DE000FFF7FEBFFFF7FEBFFFF7FEBFFFF7FEBF27
:101DF000FFF7FEBFFFF7FEBFFFF7FEBFFFF7FEBF17
:101E0000FFF7FEBFFFF7FEBFFFF7FEBFFFF7FEBF06
:101E1000FFF7FEBFFFF7FEBFFFF7FEBFFFF7FEBFF6
:101E2000FFF7FEBFFFF7FEBFFFF7FEBFFFF7FEBFE6
:041E3000FFF7FEBFFB
:0400000508001D7D55
:00000001FF
