:020000040800F2
:10000000F8170020412800082D2700082F27000896
:1000100031270008332700083527000800000000BA
:10002000000000000000000000000000672600083B
:100030003727000800000000212600083D250008A1
:10004000A1280008A5280008A9280008AD28000854
:10005000B1280008B5280008B9280008BD28000804
:10006000C1280008C5280008C9280008CD280008B4
:10007000D1280008D5280008D9280008DD28000864
:10008000E1280008E5280008E9280008ED28000814
:1000900039270008F1280008F5280008F928000889
:1000A000FD28000801290008052900080929000881
:1000B0000D29000811290008432700081529000808
:1000C000192900081D2900082129000825290008F0
:1000D000292900082D2900083129000835290008A0
:1000E000392900083D2900084129000838B50400D5
:1000F000002C01D10120AEE094F82000002802D1AC
:10010000200000F0DEFB2068006830F0020021686B
:10011000086000F029FC05002068406880070DD5C4
:1001200000F022FC401B0B28F6D3606A50F400302C
:100130006062052084F8200001208CE020680068BF
:1001400050F001002168086000F00EFC05002068F6
:100150004068C0070DD400F007FC401B0B28F6D305
:10016000606A50F400306062052084F820000120AD
:1001700071E0207E012806D12068006850F08000E0
:100180002168086005E02068006830F08000216880
:100190000860607E012806D12068006850F04000A9
:1001A0002168086005E02068006830F040002168A0
:1001B0000860A07E012806D12068006850F0200069
:1001C0002168086005E02068006830F020002168A0
:1001D0000860E07E012806D12068006830F0100039
:1001E0002168086005E02068006850F01000216870
:1001F0000860207F012806D12068006850F00800C0
:100200002168086005E02068006830F00800216877
:100210000860607F012806D12068006850F0040063
:100220002168086005E02068006830F0040021685B
:100230000860A168E06801432069014360690143E7
:100240006068401E01432068C16100206062012097
:1002500084F82000002032BD30B4026890F82030CD
:100260001C00E4B2012C02D0DBB2022B74D1D2F814
:10027000000250F00100C2F8000201200B7D13F0D3
:100280001F0310FA03F3D2F81C029843C2F81C02B1
:10029000C869002818D1D2F80C029843C2F80C02A1
:1002A000486902EBC000CC684D68ADB255EA044520
:1002B000C0F84052486902EBC0008C680D68ADB2CE
:1002C00055EA0445C0F84452C869012818D1D2F84B
:1002D0000C021843C2F80C02486902EBC0000C681B
:1002E0004D68ADB255EA0445C0F84052486902EB8A
:1002F000C0008C68CD68ADB255EA0445C0F84452E0
:100300008869002805D1D2F804029843C2F8040293
:1003100004E0D2F804021843C2F804020869002875
:1003200005D1D2F814029843C2F8140204E0D2F8BE
:1003300014021843C2F81402086A012804D1D2F842
:100340001C020343C2F81C32D2F8000240084000ED
:10035000C2F80002002004E0416A51F480214162A9
:10036000012030BC704738B5040094F82000012803
:1003700021D1022084F82000206800684008400055
:100380002168086000F0F0FA050020684068C007A6
:100390000DD500F0E9FA401B0B28F6D3606A50F443
:1003A00000306062052084F82000012008E0002071
:1003B0006062002004E0606A50F400206062012066
:1003C00032BD70B490F820500468A6688C68002C88
:1003D000FFD02C00E4B2012C02D0EDB2022D6ED180
:1003E00016F0E05F65D0C6F30164032C05D3416AC3
:1003F00051F400014162012066E00125A5401D6025
:100400008B68002B09D10B68CD6855EA435503680A
:1004100026013344C3F880510AE04B688D6855EAE1
:10042000C305CB681D43036826013344C3F88051DC
:100430000B69056826013544C5F88431097D012919
:100440000BD1016823011944D1F8841151F4807152
:10045000036825012B44C3F88411D17993791B04D7
:1004600053EA0163517953EA012311790B4301687F
:1004700025012944C1F88C31D17893781B0453EAC3
:100480000163517853EA012311780B43016822017B
:100490001144C1F88831016822011144D1F880115A
:1004A00051F00101006822011044C0F880110020C1
:1004B0000AE0416A51F400114162012004E0416AFE
:1004C00051F480214162012070BC704730B490F833
:1004D00020402500EDB2012D03D0E4B2022C40F003
:1004E000988000290AD10468E46814F0030F10D141
:1004F000416A51F40011416201208FE004682469CF
:1005000014F0030F05D1416A51F40011416201203A
:1005100084E004680D012C44D4F8B04114F00404C4
:1005200094609468002C07D104680D012C44D4F821
:10053000B041640D146006E004680D012C44D4F849
:10054000B041E408546004680D012C44D4F8B04173
:1005500014F00204D46004680D012C44D4F8B441B2
:1005600014F00F04146104680D012C44D4F8B44154
:10057000C4F30724946104680D012C44D4F8B441F9
:10058000240C546102680C012244D2F8B8211A707C
:1005900002680C012244D2F8B821120A5A7002688B
:1005A0000C012244D2F8B821120C9A7002680C0196
:1005B0002244D2F8B821120EDA7002680C012244EB
:1005C000D2F8BC211A7102680C012244D2F8BC2175
:1005D000120A5A7102680C012244D2F8BC21120C92
:1005E0009A7102680C012244D2F8BC21120EDA7111
:1005F000002906D10168C96851F020010068C16076
:1006000005E00168096951F02001006801610020DE
:1006100004E0416A51F480214162012030BC7047FE
:1006200090F820201300DBB2012B02D0D2B2022AB4
:1006300006D102685269114300684161002004E05C
:10064000416A51F480214162012070472DE9F84F41
:100650000500002428684669286847682868D0F89B
:1006600008802868D0F80C902868D0F810A0286876
:10067000D0F818B0F00755D55FEAC87018D501203A
:10068000296888605FEA887003D5280000F072F955
:100690000EE05FEA487002D554F4006408E05FEAB7
:1006A000087002D554F4805402E0280000F063F989
:1006B0005FEAC85019D54FF48070296888605FEAF6
:1006C000885003D5280000F057F90EE05FEA485043
:1006D00002D554F4005408E05FEA085002D554F4FF
:1006E000804402E0280000F048F95FEAC83019D5DC
:1006F0005FF48030296888605FEA883003D528007D
:1007000000F03CF90EE05FEA483002D554F40044B2
:1007100008E05FEA083002D554F4803402E0280093
:1007200000F02DF9300707D55FEAC96004D554F40D
:10073000007410202968C860700708D55FEA097046
:1007400005D508202968C860280000F019F9B0070D
:1007500007D52868C06810F0030F02D0280000F009
:1007600013FA700607D55FEACA6004D554F48064B2
:10077000102029680861B00608D55FEA0A7005D51F
:10078000082029680861280000F035FAF00607D52E
:100790002868006910F0030F02D0280000F02CFA3E
:1007A000B00307D5F80605D5102029684860280051
:1007B00000F023FAF00307D5380705D5082029688B
:1007C0004860280000F01AFA30044DD5780748D563
:1007D000F00506D51BF00100C0B2002801D054F08E
:1007E0000104B00504D55FEA8B7001D554F0020412
:1007F000700504D55FEA4B7001D554F00404300550
:100800002FD51BF0700F2CD01BF0700BBBF1100F0D
:100810000FD0BBF1200F0FD0BBF1300F0FD0BBF1C9
:10082000400F0FD0BBF1500F0FD0BBF1600F0FD0B6
:1008300011E054F008040EE054F010040BE054F002
:10084000200408E054F0400405E054F0800402E085
:1008500054F48074FFE72868806930F070002968DC
:100860008861042029684860002C05D0686A044328
:100870006C62280000F0C3F9BDE8F18F80B53548FF
:10088000016851F001010160006810F00100009062
:1008900000983148016851F080510160006810F003
:1008A00080500090009800220F217FF0010000F09E
:1008B000FBF92A49086830F0E06050F000700860E9
:1008C00001BD18B585B004006846102100F00CFA8F
:1008D0002068234988423BD11F48016851F00071CC
:1008E0000160006810F000700490049819480168D5
:1008F00051F008010160006810F0080004900498AD
:100900004FF4807000900020019000200290154C60
:100910006946200000F0ECF94FF4007000900220CE
:100920000190032003906946200000F0E1F90B4993
:10093000086830F4C04050F0E06050F48040086037
:1009400000220521142000F0AFF9142000F0BDF9B9
:1009500006B010BD181002401C10024004000140F7
:1009600000640040000C014001480068704700BF6F
:10097000B01300207047704770477047704770474A
:10098000704730B4002513E050F8042BD30744BF60
:10099000A9F101039A18091F042942F8045BFAD24D
:1009A00013468C0744BF15809B1CC90748BF1D70A8
:1009B00050F8041B0029E7D130BC704780B58EB0D9
:1009C00000F0A4FA00F01DF800F09DF800F04EF8D9
:1009D00007A87F491C2200F0ABFA002107A800F00D
:1009E000FBFA7C49086068467B491C2200F0A0FAAB
:1009F0000021684600F0F0FA7849086000F0E7FA54
:100A0000FEE700B58FB005A8282100F06DF9684613
:100A1000142100F069F9012005905FF48030069000
:100A2000002107910121099102210C910D905FF4A1
:100A3000E0100E9005A800F009FB002801D000F09E
:100A4000D9F80F20009002200190002002904FF46E
:100A500080600390002004900221684600F0DFFCD3
:100A6000002801D000F0C6F80FB000BD10B58AB064
:100A70005B4C5C482060092060605FF08040A060B3
:100A80005FF08070E0605FF4402020615FF48010D0
:100A9000606100202076002060760020A076012092
:100AA000E07600202077002060772000FFF71EFB13
:100AB000002801D000F09EF800200590002006904C
:100AC0000120079000200290002003900020049055
:100AD0000120089069462000FFF7BEFB002801D0E6
:100AE00000F088F82000FFF73EFC002801D000F05D
:100AF00081F802212000FFF793FD002801D000F0CB
:100B000079F80AB010BD18B585B001A8102100F021
:100B1000EBF83548016851F010010160016811F0EF
:100B2000100100910099016851F0200101600168F5
:100B300011F0200100910099016851F00401016059
:100B4000016811F0040100910099016851F0080159
:100B50000160006810F0080000900098234C00220B
:100B60004FF40051200000F09BF94FF40050019029
:100B700001200290002003900220049001A920008F
:100B800000F0B6F806B010BD00B589B06B4602AAF9
:100B90000021FFF79BFC002801D000F02BF89DF806
:100BA0000100AA2804D14FF40051104800F082F946
:100BB00009B000BD80B5012000F03DFAFBE780B52B
:100BC00000680B49884201D100F05CFD01BD0000C6
:100BD000E8270008A413002004280008A813002018
:100BE0000013002000640040181002400010014073
:100BF0000008004070477047704770477047704763
:100C000010F00700334B1A684FF6FF010A403249D3
:100C100051EA00210A431A6070472E480068C0F369
:100C200002207047010049B2002908D4012210F0C7
:100C30001F018A40294940B2400941F820207047ED
:100C4000020052B2002A04D40901254A40B21154CC
:100C500007E00901234A40B210F00F00104400F8E9
:100C6000041C704710B410F00700D0F10703052BE7
:100C700001D3042301E0D0F10703041D072C01D2A6
:100C8000002000E0C01E012414FA03F35B1E19408B
:100C9000814014FA00F0401E1040084310BC704719
:100CA00080B5FFF7ADFF01BD70B504000D00160063
:100CB0000020FFF7B2FF32002900FFF7D3FF010049
:100CC000200040B2FFF7BCFF70BD80B540B2FFF717
:100CD000A9FF01BD0CED00E00000FA0500E100E015
:100CE00000E400E018ED00E0002200F0D7BC0102B3
:100CF000F8B502000023002514E0DFF8D0010668F3
:100D000036EA040404600CE0DFF8C4010668A64378
:100D1000066048688002F0D5DFF8B0010668344309
:100D200004605B1C0868D840002800F0B8800126E9
:100D30009E400C683440B442F3D14868002827D064
:100D400001281AD002281DD003282FD0112816D030
:100D500012281AD05F4FB8421AD05F4FB84217D04E
:100D60005E4FB84214D05E4FB84211D05D4FB842CA
:100D70000ED05D4FB8420BD01AE0CD6818E0CD68B8
:100D80002D1D15E0CD68083512E0CD680C350FE05B
:100D90008868002801D1042507E08868012802D16D
:100DA0000825166101E00825566101E00025FFE7EE
:100DB000B4F5807F01D2170000E0171DB4F5807FE5
:100DC00002D25FEA830C03E0B3F1080C5FEA8C0CFB
:100DD0000F26D7F800E016FA0CF03EEA000E15FADE
:100DE0000CFC5CEA0E0CC7F800C04868C00098D53F
:100DF0003E48076857F001070760006810F00100DF
:100E0000009000983A4F1800800857F820C013F05F
:100E10000300C0B2800086403CEA060C354882429E
:100E200001D100260FE03448824201D101260AE0B8
:100E30003248824201D1022605E03148824201D186
:100E4000032600E0042613F00300C0B280008640B1
:100E500056EA0C0C1800800847F820C04868C00308
:100E600004D5284806682643066003E0254806683E
:100E7000A64306604868800304D5234806682643D5
:100E8000066003E020480668A64306604868C00282
:100E90007FF53AAF0E4806682643066039E7F1BD94
:100EA000D2B2002A02D089B2016102E089B20904FB
:100EB00001617047C2680B009BB21A4202D089B22E
:100EC000416101E089B20161704700000C040140FA
:100ED0000804014000001110000012100000211051
:100EE00000002210000031100000321018100240E3
:100EF0000800014000080140000C014000100140C2
:100F000000140140000401400404014080B507487A
:100F1000016851F0100101600320FFF7C1FE0020BD
:100F200000F0D6FBFFF7AAFC002002BD0020024023
:100F3000103A07D330B4B1E83810103AA0E83810AE
:100F4000F9D230BC530724BFB1E80810A0E808105C
:100F500044BF51F8043B40F8043BD20724BF31F8AA
:100F6000022B20F8022B44BF0B7803707047121F2E
:100F700017D35B0009D151F8043B20F8023B1B0C4E
:100F8000121F20F8023BF6D20BE051F8043B00F8A8
:100F9000013B1B0A20F8023B1B0C121F00F8013B0F
:100FA000F3D238BF121D521E24BF11F8013B00F8C6
:100FB000013BF8D870470000010000200A0012B27F
:100FC000842A03D009B2C91C09180800704780B5EB
:100FD00000F001FD002002BD38B584B004000D0012
:100FE0006069002815D0A069002812D0B4F9080063
:100FF000FFF7E2FFA16902916169019100902B0066
:1010000022692168606800F0A3FB0390039805B093
:1010100030BDB4F90800FFF7CFFF03A9019100909C
:101020002B00226992B22168606800F0D2FB01288F
:10103000ECD00020EBE780B50121B0FBF1F00028F7
:1010400000D1012000F0A1FC002002BD2DE9FC41EF
:101050000400002C01D10120DFE12078C0076BD50E
:10106000DFF8DC05016811F00C01042907D00168E4
:1010700011F00C0108290CD10068C00309D5DFF874
:10108000BC050068800357D56068002854D1012052
:10109000C3E16068B0F5803F06D1DFF8A0050168C4
:1010A00051F48031016026E0606800280AD1DFF841
:1010B0008C05016831F480310160016831F48021D0
:1010C000016018E06068B0F5A02F0AD1DFF86C0568
:1010D000016851F480210160016851F480310160A0
:1010E00009E0DFF85805016831F4803101600168DA
:1010F00031F480210160606800280ED0FFF734FCD5
:101100000500DFF838050068800315D4FFF72CFCD4
:10111000401B6528F5D303207FE1FFF725FC050080
:10112000DFF818050068800306D5FFF71DFC401B9B
:101130006528F5D3032070E1207880071ED5DFF8FD
:101140000005016811F00C0F07D0016811F00C01C7
:1011500008292CD10068C00329D4DFF8E004016815
:10116000890704D52169012901D0012055E10168D1
:1011700031F0F801626951EAC2010160207800078C
:1011800049D5A069002871D00120DFF8C814086093
:10119000FFF7EAFB0500DFF8B8040068800737D4E2
:1011A000FFF7E2FB401B0328F5D3032035E120695C
:1011B00000281AD00120DFF8A0140860FFF7D4FB44
:1011C0000500DFF878040168890706D4FFF7CCFB37
:1011D000401B0328F5D303201FE1016831F0F8011B
:1011E000626951EAC2010160C8E70020DFF86814B3
:1011F0000860FFF7B9FB0500DFF8400400688007CE
:10120000BCD5FFF7B1FB401B0328F5D3032004E155
:10121000012000F000FA2078400740F19680002677
:10122000DFF838542868C00009D4286850F080508E
:101230002860286810F08050009000980126DFF8A0
:1012400020743868C00524D4386850F48070386041
:10125000FFF78AFB80463868C0051AD4FFF784FB85
:10126000B0EB08006528F6D30320D6E00020DFF8B5
:10127000E4130860FFF778FB0500DFF8D40300688B
:101280008007C8D5FFF770FB401B0328F5D3032068
:10129000C3E0E068012806D1DFF8C803016851F017
:1012A0000101016025E0E06800280AD1DFF8B403FD
:1012B0000168490849000160016831F004010160DA
:1012C00017E0E06805280AD1DFF89803016851F0BB
:1012D00004010160016851F00101016009E0DFF8DB
:1012E00084030168490849000160016831F0040184
:1012F0000160E068002810D0FFF736FB0700DFF838
:1013000064030068800719D4FFF72EFBC01B41F26D
:1013100089318842F3D303207FE0FFF725FB0700E4
:10132000DFF840030068800708D5FFF71DFBC01BEE
:1013300041F289318842F3D303206EE0F6B2012EE8
:1013400003D1286830F080502860E069002863D01D
:10135000DFF8EC62306810F00C0008284AD0E06931
:10136000022834D1DFF8007300203860FFF7FCFA60
:101370008046DFF8C8522868800107D5FFF7F4FAE5
:10138000B0EB08000328F4D3032046E0206AB0F550
:10139000803F05D1316831F40031A06801433160EC
:1013A000316831F47411206A0143606A014331608D
:1013B00001203860FFF7D8FA0400286880012BD498
:1013C000FFF7D2FA001B0328F7D3032025E0002003
:1013D000DFF894120860FFF7C7FA0400DFF85C0238
:1013E0000068800118D5FFF7BFFA001B0328F5D36A
:1013F000032012E0E069012801D101200DE03068EE
:1014000010F48031226A914204D110F47010616AA4
:10141000884201D0012000E00020BDE8F6812DE9DE
:10142000F04104000E00002C01D1012098E0DFF80B
:101430003C52286810F00700B0420BD22868C00860
:10144000C00030432860286810F00700B04201D087
:10145000012085E02078800716D52078400704D544
:101460007748016851F4E06101602078000704D5F5
:101470007348016851F46051016071490A6832F0A3
:10148000F002A06802430A602078C00732D5606885
:10149000012805D169480068800310D401205FE06D
:1014A0006068022805D165480068800107D40120E2
:1014B00056E062480068800701D4012050E0604F88
:1014C000396889088900606801433960FFF74CFA80
:1014D0008046386810F00C006168B0EB810F09D0CD
:1014E000FFF742FAB0EB080041F289318842F0D3AD
:1014F000032035E0286810F0070086420BD22868E8
:10150000C008C00030432860286810F00700B042CF
:1015100001D0012024E02078400706D548490A6818
:1015200032F4E062E06802430A602078000707D5E1
:101530004348016831F46051226951EAC2010160F7
:1015400000F010F84A493E4A1268C2F30312895C5F
:10155000C8403D4908603D48006800F0B9F80020E7
:10156000BDE8F08100B585B001A842491022FFF71F
:10157000DFFC41480088ADF800000020002000207A
:10158000002000202E4A116811F00C00042802D01F
:10159000082802D014E02B4813E001A8C1F38343CC
:1015A000C05CC90309D569461268C2F340428A5C2F
:1015B00024494843B0FBF2F001E03049484300E0E1
:1015C000204805B000BD20480068704780B5FFF78F
:1015D000FAFF2B491A4A1268C2F30222895CC840FA
:1015E00002BD0F220260164A136813F00303436022
:1015F000136813F0F0038360136813F4E063C360AF
:101600001268D20812F4E06202611848006810F013
:1016100007000860704781B00B490968C9084FF49A
:101620007A72B1FBF2F14843009000BF0098411E6E
:1016300000910028F9D101B070470000001002406D
:101640000410024000127A0008000020040000206C
:101650002410024080044242000042421C1002401A
:101660000070004020100240600042420020024012
:101670003028000820280008EE0C000800093D0072
:101680008C28000803490A680348007882180A6019
:10169000704700BFB01300200C00002000B500BF51
:1016A000130096469446103928BFA0E80C50FAD88B
:1016B0005FEA417C28BF0CC048BF40F8042BC90733
:1016C00028BF20F8022B48BF00F8012B00BD000006
:1016D00018B587B001000020002000221E20FFF76F
:1016E000E3FA1E20FFF7F1FA1548016851F00401F2
:1016F0000160006810F004000090009801A902A8A1
:10170000FFF76FFFFFF762FF40000E49B0FBF1F0FB
:10171000401E0D4C0D49216040F2E731E1606060F0
:10172000002020610020A060200000F0C9FB0028FC
:1017300003D1200000F0E0FB00E0012008B010BD64
:101740001C10024040420F00C01200200008004060
:1017500078B585B005000B98002807D1502080F39C
:101760001188BFF34F8FBFF36F8FFEE70C9C002CE7
:1017700007D1502080F31188BFF34F8FBFF36F8FD5
:10178000FEE754260096009E542E07D0502080F38A
:101790001188BFF34F8FBFF36F8FFEE7002C13D07C
:1017A000002811D00A9E2063022084F851000020F6
:1017B0000390029404A801900096280000F043F8DA
:1017C000200000F095F801E000200490049806B095
:1017D00070BD2DE9F84384B006000F00914698468D
:1017E000484680B2800000F091FC0500002D0BD02F
:1017F000542000F08BFC0400002C01D0256304E091
:10180000280000F00DFD00E00024002C16D00D99FA
:101810000C98002284F85120002203920294019136
:10182000009043461FFA89F94A463900300000F01B
:101830000AF8200000F05CF8012001E05FF0FF30C2
:1018400005B0BDE8F0832DE9F84305001E000A9FAE
:10185000386B00EB8200B0F104085FEAD8085FEA59
:10186000C80818F00700002807D0502080F311881E
:10187000BFF34F8FBFF36F8FFEE7002200E0521CD3
:10188000102A07D2885C07EB020383F83400885CD7
:101890000028F4D1DDF82090002087F84300B9F14A
:1018A000070F01D35FF00609099CC7F82C90C7F811
:1018B00044900020B864381D00F067FD17F118004F
:1018C00000F063FD3F61D9F10709C7F818907F6206
:1018D0000020F864002087F85000320029004046BC
:1018E00000F090FD3860002C00D02760BDE8F18347
:1018F00038B5040000F0F2FDDFF8BC130868401CA6
:101900000860DFF8B8532868002806D12C60086802
:1019100001280DD100F0ECF90AE0DFF8C8030068F7
:10192000002805D1E06A2968C96A884200D32C6082
:10193000DFF8B4030168491C0160DFF8B0130A68DE
:101940000123E06A83401A430A60211DDFF8F02377
:10195000E36A1420434302EB030000F019FD00F09A
:10196000D7FDDFF88003006800280DD02868C06A22
:10197000E16A884208D25FF08050DFF8781408608E
:10198000BFF34F8FBFF36F8F31BD10B50400002040
:10199000002C14D0DFF858040068002807D050202D
:1019A00080F31188BFF34F8FBFF36F8FFEE700F016
:1019B00059F80021200000F037FA00F059F800280B
:1019C00008D15FF08050DFF82C140860BFF34F8F10
:1019D000BFF36F8F10BD10B586B0002004900020BB
:1019E000039005AA03A904A800F0E2FDDFF8104463
:1019F0000498029003980190002000900023059A1B
:101A0000DFF800140FF2B920FFF7A2FE2060206873
:101A1000002801D0012000E00020012817D150202B
:101A200080F31188BFF34F8FBFF36F8F5FF0FF30EC
:101A3000DFF8D81308600120DFF8A8120860002042
:101A4000DFF8CC13086000F002FD06B010BD10F105
:101A5000010FFAD1502080F31188BFF34F8FBFF3ED
:101A60006F8FFEE7DFF888030168491C016070474B
:101A700070B500240025DFF878633068002807D1AE
:101A8000502080F31188BFF34F8FBFF36F8FFEE7B5
:101A900000F024FD3068401E30603068002855D1C9
:101AA000DFF814020068002826D14FE0C868C46837
:101AB00014F1180000F093FC201D00F090FCDFF8FA
:101AC0002C120A680123E06A83401A430A60211D30
:101AD000DFF86C22E36A1420434302EB030000F0BA
:101AE00057FCE06ADFF8D4110968C96A884203D359
:101AF0000120DFF830130860DFF80C1308680028B5
:101B0000D4D1002C01D000F05EF9DFF8086334680E
:101B1000002C0CD000F01EF8002803D00120DFF8C4
:101B200004130860641E002CF4D100203060DFF83C
:101B3000F4020068002809D001255FF08050DFF82A
:101B4000B4120860BFF34F8FBFF36F8F00F0E0FC5B
:101B5000280070BDF8B50025DFF894020068002861
:101B600067D1DFF8AC020468641C0460002C1AD151
:101B7000DFF8A41208680068002807D0502080F31E
:101B80001188BFF34F8FBFF36F8FFEE70868DFF850
:101B90008C2213680B601060DFF884020168491C16
:101BA000016000F010F9DFF864623068844230D3DD
:101BB00022E0381D00F013FCB86A002803D017F1AA
:101BC000180000F00CFCDFF824110A680123F86A01
:101BD00083401A430A60391DDFF86421FB6A142030
:101BE000434302EB030000F0D3FBF86A3349096872
:101BF000C96A884200D30125DFF81C120868006812
:101C0000002812D00868C068C76878688442D0D2BB
:101C100030602A480068DFF82811C26A1420424365
:101C2000885802280AD3012508E05FF0FF303060B1
:101C3000EFE7DFF8E0010168491C0160DFF8E4012B
:101C40000068002800D001252800F2BDDFF8A001BF
:101C50000068002804D00120DFF8C81108602AE0DD
:101C60000020DFF8C011086020480068B0FA80F159
:101C7000D1F11F011422324B02FB01F01858002849
:101C800007D1502080F31188BFF34F8FBFF36F8FC0
:101C9000FEE7514303EB0100416849684160416838
:101CA00010F10802914202D14168496841604068E0
:101CB000C068024908607047C4130020B4130020B4
:101CC00080B500F03FF81E4800680228F9D35FF0A5
:101CD0008050DFF828110860BFF34F8FBFF36F8F7C
:101CE000EFE70000D0130020E0130020CC13002009
:101CF00038B5002407E01248142101FB04F1084420
:101D000000F034FB641C072CF5D3DFF89841200069
:101D100000F02CFBDFF89051280000F027FBDFF8E3
:101D2000E80000F023FB154800F020FB324800F0EB
:101D30001DFBDFF8E4000460DFF87001056031BDD1
:101D4000E011002038B514E000F0C8FB0B48C06873
:101D5000C468201D00F043FBDFF840010168491E04
:101D600001602868401E286000F0D2FB200000F0CF
:101D700009F8034D28680028E6D131BD641300201E
:101D8000C013002010B5040094F85100002806D1BB
:101D9000206B00F045FA200000F042FA10BD94F8E4
:101DA0005100012803D1200000F03AFAF6E794F838
:101DB00051000228F2D0502080F31188BFF34F8FDA
:101DC000BFF36F8FFEE7DFF8501008680068002847
:101DD00005D15FF0FF30DFF83410086006E00868D6
:101DE000C068C0684068DFF82410086070470000D1
:101DF000EC13002004ED00E07813002004ED00E077
:101E0000E81300209428000850130020E413002059
:101E1000C8130020D4130020B8130020BC130020E6
:101E2000DC130020D8130020F8B505000C001A4878
:101E300006681B4F3868001D00F0D1FA002807D152
:101E400038681B490A680123C06A83409A430A60C4
:101E500015F1010F07D1002C05D03868011D154878
:101E600000F096FA16E0AD1938684560B54206D222
:101E70003868011D0D48006800F096FA0AE03868DD
:101E8000011D0D48006800F08FFA0C4801688D4272
:101E900000D20560F1BD0000C8130020C41300206B
:101EA000B4130020281300203C130020BC13002092
:101EB000CC13002078130020B8130020E413002076
:101EC00010B50400002C01D1012014E094F83D006D
:101ED000002805D1002084F83C00200000F014F90F
:101EE000022084F83D00211D206800F0D4F8012074
:101EF00084F83D00002010BD0168C96851F001015F
:101F00000268D1600168896811F00701062905D0CF
:101F10000168096851F00101006801600020704704
:101F200010B504002068006980071AD52068C068D1
:101F3000800716D57FF00200216808610120207714
:101F40002068806910F0030F03D0200000F062FBCE
:101F500005E0200000F05FFB200000F05DFB0020AA
:101F600020772068006940071AD52068C0684007BC
:101F700016D57FF0040021680861022020772068D0
:101F8000806910F4407F03D0200000F043FB05E09F
:101F9000200000F040FB200000F03EFB00202077F6
:101FA0002068006900071AD52068C068000716D5A8
:101FB0007FF0080021680861042020772068C0694C
:101FC00010F0030F03D0200000F024FB05E02000F8
:101FD00000F021FB200000F01FFB0020207720688C
:101FE0000069C0061AD52068C068C00616D57FF003
:101FF000100021680861082020772068C06910F46B
:10200000407F03D0200000F005FB05E0200000F039
:1020100002FB200000F000FB002020772068006910
:10202000C0070AD52068C068C00706D57FF0010048
:10203000216808612000FEF7C2FD206800690006E3
:102040000AD52068C068000606D57FF080002168A8
:102050000861200000F0E1FA2068006940060AD516
:102060002068C068400606D57FF0400021680861FE
:10207000200000F0D3FA2068006980060AD52068A5
:10208000C068800606D57FF0200021680861200026
:1020900000F0C5FA10BD10B40368184CA04208D077
:1020A000B0F1804F05D0164A904202D0154A9042B6
:1020B00003D133F070034A681343A04208D0B0F153
:1020C000804F05D00E4A904202D00E4A904203D172
:1020D00033F44073CA68134333F080034A691343EF
:1020E00003608A68C2620A688262A04201D10969FB
:1020F00001630121416110BC70470000002C0140C8
:102100000004004000080040704700002DE9F8433B
:1021100004000025FFF7A6FCDFF83492D9F8000090
:10212000002801D100F0B5F88A4F3868044266D122
:10213000002C15D088480068041914F0070F0FD040
:1021400014F1080014F00704041B14F0070F07D063
:10215000502080F31188BFF34F8FBFF36F8FFEE7DE
:10216000002C4CD0DFF8F481D8F80000A04246D310
:102170007B480100066801E0310036687068A042C3
:1021800002D230680028F7D1D9F80000864236D054
:1021900071480A68036802EB030532680A60006848
:1021A00040007168091B884214D206EB040111F04B
:1021B0000700002807D0502080F31188BFF34F8F0D
:1021C000BFF36F8FFEE77068001B48607460080003
:1021D00000F08EF8D8F800107068091AC8F80010DE
:1021E0006048D8F800100268914202D2D8F8001076
:1021F0000160716838680143716000203060FFF74A
:1022000037FC15F00700002807D0502080F3118814
:10221000BFF34F8FBFF36F8FFEE72800BDE8F28357
:1022200010B50100002833D04B480068404201EB54
:102230000004484960680A68104207D1502080F3C2
:102240001188BFF34F8FBFF36F8FFEE72068002820
:1022500007D0502080F31188BFF34F8FBFF36F8FEB
:10226000FEE760680A68104212D0206800280FD18B
:102270006268086882436260FFF7F4FB37490A68C6
:10228000606882180A60200000F032F8FFF7F0FB67
:1022900010BD10B44FF47D623348010011F0070FF8
:1022A00004D0C91DC908C900521A82182C480160FF
:1022B00000234360521828480068121AD208D2003E
:1022C00023480260002304686360002304682360DD
:1022D000521A4A60006808604868224A10604868DC
:1022E0001E4908605FF000401A49086010BC704742
:1022F00010B41B4A00E0126811688142FBD3110040
:1023000053681944814204D15168406841185160B2
:1023100010000100436819441368994210D10C4918
:1023200013680C68A34208D0436811684968CB1849
:10233000436011680968016004E00968016001E018
:1023400011680160824200D0106010BC704700002C
:1023500094130020A01300209C280008981300204C
:102360008C1300209C1300201000002010F10801A5
:1023700041605FF0FF31816010F10801C16010F130
:10238000080101610021016070470021016170476F
:1023900042684A6093688B609368596091600861F5
:1023A0000168491C0160704710B40B6813F1010FFC
:1023B00001D1026907E010F1080200E05268546898
:1023C0002468A342FAD253684B604B6899608A60D4
:1023D000516008610168491C016010BC70470169C7
:1023E000826843689A60426883685A604A68824299
:1023F00001D182684A60002202610868401E0860BC
:1024000008687047001F5FF080730360001F490871
:1024100049000160001F0FF20D01016014380260D5
:10242000203870474F48006810F1010F07D0502046
:1024300080F31188BFF34F8FBFF36F8FFEE75020FB
:1024400080F31188BFF34F8FBFF36F8FFEE7E0B5C6
:10245000454801780191FF21017001788DF8001045
:102460009DF8001011F05001404A117040490722B8
:102470000A6007E00A68521E0A609DF800205200B8
:102480008DF800209DF800201206F3D40A68D2F1DE
:102490000702042A07D0502080F31188BFF34F8F22
:1024A000BFF36F8FFEE70A6812020A600A6812F42F
:1024B000E0620A60019901702E48016851F47001D0
:1024C0000160016851F07041016000F057F8002090
:1024D0002449086000F0D7F800200EBD502080F39A
:1024E0001188BFF34F8FBFF36F8F1E490A68521CCC
:1024F0000A60096801290AD11F490968090606D03E
:1025000080F31188BFF34F8FBFF36F8FFEE77047E3
:1025100014490868002807D1502080F31188BFF3C0
:102520004F8FBFF36F8FFEE70868401E0860086892
:10253000002802D1002080F31188704780B5502018
:1025400080F31188BFF34F8FBFF36F8FFFF702FB4C
:10255000002803D05FF0805007490860002080F316
:10256000118801BD0000002000E400E0F01300200D
:10257000AC13002020ED00E004ED00E0084800214D
:1025800001600021074A1160074909684FF47A7217
:10259000B1FBF2F1491E054A116007210160704745
:1025A00010E000E018E000E00800002014E000E087
:1025B000144B03601448086080201060704700B519
:1025C00089B008200790FF2003900020069000208B
:1025D000059000208DF8200001A80C49D1E90023C6
:1025E000C0E900236B4601AA03A90948FDF7E9FEEB
:1025F000002801D0FEF7FEFA4FF49670FFF7C5F9F8
:10260000DFE700006C120020E00F002084280008A3
:10261000001300207047704770477047704770473D
:10262000EFF30980BFF36F8F1D4B1A6820E9F00F9D
:10263000106008B54FF0500080F31188BFF34F8F42
:10264000BFF36F8FFFF702FB4FF0000080F311889C
:10265000BDE8084019680868B0E8F00F80F3098801
:10266000BFF36F8F70470E4B19680868B0E8F00F22
:1026700080F30988BFF36F8F4FF0000080F311885B
:102680004EF00D0E704707480068006880F3088818
:1026900062B661B6BFF34F8FBFF36F8F00DF0000EC
:1026A000B413002008ED00E00F49086850F0010065
:1026B00008600E4A13680E48034013600B680D480B
:1026C00003400B60086830F480200860106830F424
:1026D000FE0010605FF41F00074908605FF00060B3
:1026E00006490860704700000010024004100240D4
:1026F0000000FFF8FFFFF6FE0810024008ED00E0C2
:1027000030B450F8041B79B10268436802440830C1
:10271000DC0744BFA9F10104E31852F8045B43F855
:10272000045B091FF9D1ECE730BC70477047FEE746
:10273000FEE7FEE7FEE7704780B50448FDF786FF39
:1027400001BD80B50248FFF7EBFB01BD001300207F
:10275000C012002010B5074979441831064C7C445A
:10276000163404E00A68081D114488470146A14256
:10277000F8D110BD080000002800000007E2FFFFAC
:10278000E4130000100000200000000075FFFFFFB0
:1027900010000000BC00000000000020000000004D
:1027A00000F00DF8002801D0FFF7D4FFAFF3008050
:1027B0000020AFF30080FEF701F900F002F80120DD
:1027C000704700F001B800000746384600F002F8F4
:1027D000FBE7000080B5AFF30080024A110018202B
:1027E000ABBEFBE72600020060280008B50B00081E
:1027F0000000000000000000800000000000000059
:10280000000000006C280008BF2500080000000040
:1028100000000000000200000000000000000000B6
:1028200002030405060708090A0B0C0D0E0F101011
:102830000000000000000000010203040607080970
:102840000148804701480047A92600087928000868
:10285000AAAAAAAA100000000024F40001000000A7
:1028600064656661756C745461736B0043414E5FBF
:1028700054585F5461736B00AFF30080AFF3008076
:10288000FFF78EFF35AAAAFF00000000000000003D
:102890000102030449444C45000000000800000008
:1028A000FFF7FEBFFFF7FEBFFFF7FEBFFFF7FEBF5C
:1028B000FFF7FEBFFFF7FEBFFFF7FEBFFFF7FEBF4C
:1028C000FFF7FEBFFFF7FEBFFFF7FEBFFFF7FEBF3C
:1028D000FFF7FEBFFFF7FEBFFFF7FEBFFFF7FEBF2C
:1028E000FFF7FEBFFFF7FEBFFFF7FEBFFFF7FEBF1C
:1028F000FFF7FEBFFFF7FEBFFFF7FEBFFFF7FEBF0C
:10290000FFF7FEBFFFF7FEBFFFF7FEBFFFF7FEBFFB
:10291000FFF7FEBFFFF7FEBFFFF7FEBFFFF7FEBFEB
:10292000FFF7FEBFFFF7FEBFFFF7FEBFFFF7FEBFDB
:10293000FFF7FEBFFFF7FEBFFFF7FEBFFFF7FEBFCB
:04294000FFF7FEBFE0
:04000005080028794E
:00000001FF
